{
  "_format": "hh-sol-artifact-1",
  "contractName": "HXPClient",
  "sourceName": "contracts/HXPClient.sol",
  "abi": [
    {
      "inputs": [],
      "stateMutability": "nonpayable",
      "type": "constructor"
    },
    {
      "anonymous": false,
      "inputs": [
        {
          "indexed": true,
          "internalType": "address",
          "name": "previousOwner",
          "type": "address"
        },
        {
          "indexed": true,
          "internalType": "address",
          "name": "newOwner",
          "type": "address"
        }
      ],
      "name": "OwnershipTransferred",
      "type": "event"
    },
    {
      "inputs": [
        {
          "internalType": "address",
          "name": "_hxp",
          "type": "address"
        }
      ],
      "name": "_setHyperXP",
      "outputs": [],
      "stateMutability": "nonpayable",
      "type": "function"
    },
    {
      "inputs": [],
      "name": "hyperXP",
      "outputs": [
        {
          "internalType": "contract IHXP",
          "name": "",
          "type": "address"
        }
      ],
      "stateMutability": "view",
      "type": "function"
    },
    {
      "inputs": [
        {
          "internalType": "address",
          "name": "collection",
          "type": "address"
        },
        {
          "internalType": "uint256",
          "name": "tokenId",
          "type": "uint256"
        }
      ],
      "name": "largeAction",
      "outputs": [],
      "stateMutability": "nonpayable",
      "type": "function"
    },
    {
      "inputs": [],
      "name": "owner",
      "outputs": [
        {
          "internalType": "address",
          "name": "",
          "type": "address"
        }
      ],
      "stateMutability": "view",
      "type": "function"
    },
    {
      "inputs": [],
      "name": "renounceOwnership",
      "outputs": [],
      "stateMutability": "nonpayable",
      "type": "function"
    },
    {
      "inputs": [
        {
          "internalType": "address",
          "name": "collection",
          "type": "address"
        },
        {
          "internalType": "uint256",
          "name": "tokenId",
          "type": "uint256"
        }
      ],
      "name": "simpleAction",
      "outputs": [],
      "stateMutability": "nonpayable",
      "type": "function"
    },
    {
      "inputs": [
        {
          "internalType": "address",
          "name": "newOwner",
          "type": "address"
        }
      ],
      "name": "transferOwnership",
      "outputs": [],
      "stateMutability": "nonpayable",
      "type": "function"
    }
  ],
  "bytecode": "0x608060405234801561001057600080fd5b5061002d61002261003960201b60201c565b61004160201b60201c565b60018081905550610105565b600033905090565b60008060009054906101000a900473ffffffffffffffffffffffffffffffffffffffff169050816000806101000a81548173ffffffffffffffffffffffffffffffffffffffff021916908373ffffffffffffffffffffffffffffffffffffffff1602179055508173ffffffffffffffffffffffffffffffffffffffff168173ffffffffffffffffffffffffffffffffffffffff167f8be0079c531659141344cd1fd0a4f28419497f9722a3daafe3b4186f6b6457e060405160405180910390a35050565b610a6c806101146000396000f3fe608060405234801561001057600080fd5b506004361061007d5760003560e01c80638da5cb5b1161005b5780638da5cb5b146100c6578063c81fea35146100e4578063ee1eec9314610100578063f2fde38b1461011c5761007d565b806339af2b7c14610082578063715018a6146100a057806377d73c71146100aa575b600080fd5b61008a610138565b6040516100979190610689565b60405180910390f35b6100a861015e565b005b6100c460048036038101906100bf919061071d565b610172565b005b6100ce61029d565b6040516100db919061076c565b60405180910390f35b6100fe60048036038101906100f99190610787565b6102c6565b005b61011a6004803603810190610115919061071d565b610312565b005b61013660048036038101906101319190610787565b61043c565b005b600260009054906101000a900473ffffffffffffffffffffffffffffffffffffffff1681565b6101666104c0565b610170600061053e565b565b600260009054906101000a900473ffffffffffffffffffffffffffffffffffffffff1673ffffffffffffffffffffffffffffffffffffffff16637545059c83836001306040518563ffffffff1660e01b81526004016101d494939291906107fe565b600060405180830381600087803b1580156101ee57600080fd5b505af1158015610202573d6000803e3d6000fd5b50505050600260009054906101000a900473ffffffffffffffffffffffffffffffffffffffff1673ffffffffffffffffffffffffffffffffffffffff16630a291e2e83836101f46040518463ffffffff1660e01b81526004016102679392919061087e565b600060405180830381600087803b15801561028157600080fd5b505af1158015610295573d6000803e3d6000fd5b505050505050565b60008060009054906101000a900473ffffffffffffffffffffffffffffffffffffffff16905090565b6102ce6104c0565b80600260006101000a81548173ffffffffffffffffffffffffffffffffffffffff021916908373ffffffffffffffffffffffffffffffffffffffff16021790555050565b600260009054906101000a900473ffffffffffffffffffffffffffffffffffffffff1673ffffffffffffffffffffffffffffffffffffffff16637545059c83836001306040518563ffffffff1660e01b815260040161037494939291906107fe565b600060405180830381600087803b15801561038e57600080fd5b505af11580156103a2573d6000803e3d6000fd5b50505050600260009054906101000a900473ffffffffffffffffffffffffffffffffffffffff1673ffffffffffffffffffffffffffffffffffffffff16630a291e2e838360326040518463ffffffff1660e01b8152600401610406939291906108f0565b600060405180830381600087803b15801561042057600080fd5b505af1158015610434573d6000803e3d6000fd5b505050505050565b6104446104c0565b600073ffffffffffffffffffffffffffffffffffffffff168173ffffffffffffffffffffffffffffffffffffffff1614156104b4576040517f08c379a00000000000000000000000000000000000000000000000000000000081526004016104ab906109aa565b60405180910390fd5b6104bd8161053e565b50565b6104c8610602565b73ffffffffffffffffffffffffffffffffffffffff166104e661029d565b73ffffffffffffffffffffffffffffffffffffffff161461053c576040517f08c379a000000000000000000000000000000000000000000000000000000000815260040161053390610a16565b60405180910390fd5b565b60008060009054906101000a900473ffffffffffffffffffffffffffffffffffffffff169050816000806101000a81548173ffffffffffffffffffffffffffffffffffffffff021916908373ffffffffffffffffffffffffffffffffffffffff1602179055508173ffffffffffffffffffffffffffffffffffffffff168173ffffffffffffffffffffffffffffffffffffffff167f8be0079c531659141344cd1fd0a4f28419497f9722a3daafe3b4186f6b6457e060405160405180910390a35050565b600033905090565b600073ffffffffffffffffffffffffffffffffffffffff82169050919050565b6000819050919050565b600061064f61064a6106458461060a565b61062a565b61060a565b9050919050565b600061066182610634565b9050919050565b600061067382610656565b9050919050565b61068381610668565b82525050565b600060208201905061069e600083018461067a565b92915050565b600080fd5b60006106b48261060a565b9050919050565b6106c4816106a9565b81146106cf57600080fd5b50565b6000813590506106e1816106bb565b92915050565b6000819050919050565b6106fa816106e7565b811461070557600080fd5b50565b600081359050610717816106f1565b92915050565b60008060408385031215610734576107336106a4565b5b6000610742858286016106d2565b925050602061075385828601610708565b9150509250929050565b610766816106a9565b82525050565b6000602082019050610781600083018461075d565b92915050565b60006020828403121561079d5761079c6106a4565b5b60006107ab848285016106d2565b91505092915050565b6107bd816106e7565b82525050565b6000819050919050565b60006107e86107e36107de846107c3565b61062a565b6106e7565b9050919050565b6107f8816107cd565b82525050565b6000608082019050610813600083018761075d565b61082060208301866107b4565b61082d60408301856107ef565b61083a606083018461075d565b95945050505050565b6000819050919050565b600061086861086361085e84610843565b61062a565b6106e7565b9050919050565b6108788161084d565b82525050565b6000606082019050610893600083018661075d565b6108a060208301856107b4565b6108ad604083018461086f565b949350505050565b6000819050919050565b60006108da6108d56108d0846108b5565b61062a565b6106e7565b9050919050565b6108ea816108bf565b82525050565b6000606082019050610905600083018661075d565b61091260208301856107b4565b61091f60408301846108e1565b949350505050565b600082825260208201905092915050565b7f4f776e61626c653a206e6577206f776e657220697320746865207a65726f206160008201527f6464726573730000000000000000000000000000000000000000000000000000602082015250565b6000610994602683610927565b915061099f82610938565b604082019050919050565b600060208201905081810360008301526109c381610987565b9050919050565b7f4f776e61626c653a2063616c6c6572206973206e6f7420746865206f776e6572600082015250565b6000610a00602083610927565b9150610a0b826109ca565b602082019050919050565b60006020820190508181036000830152610a2f816109f3565b905091905056fea26469706673582212201b7b550ca5f695282f76ff0ef7356bd3254f38a206952ff34722a3c65dad1b4564736f6c63430008090033",
  "linkReferences": {},
  "deployedLinkReferences": {}
}