{
  "_format": "hh-sol-artifact-1",
  "contractName": "HXPClient",
  "sourceName": "contracts/HXPClient.sol",
  "abi": [
    {
      "inputs": [],
      "stateMutability": "nonpayable",
      "type": "constructor"
    },
    {
      "anonymous": false,
      "inputs": [
        {
          "indexed": true,
          "internalType": "address",
          "name": "previousOwner",
          "type": "address"
        },
        {
          "indexed": true,
          "internalType": "address",
          "name": "newOwner",
          "type": "address"
        }
      ],
      "name": "OwnershipTransferred",
      "type": "event"
    },
    {
      "inputs": [
        {
          "internalType": "address",
          "name": "_hxp",
          "type": "address"
        }
      ],
      "name": "_setHyperXP",
      "outputs": [],
      "stateMutability": "nonpayable",
      "type": "function"
    },
    {
      "inputs": [],
      "name": "hyperXP",
      "outputs": [
        {
          "internalType": "contract IHXP",
          "name": "",
          "type": "address"
        }
      ],
      "stateMutability": "view",
      "type": "function"
    },
    {
      "inputs": [
        {
          "internalType": "address",
          "name": "collection",
          "type": "address"
        },
        {
          "internalType": "uint256",
          "name": "tokenId",
          "type": "uint256"
        }
      ],
      "name": "largeAction",
      "outputs": [],
      "stateMutability": "nonpayable",
      "type": "function"
    },
    {
      "inputs": [],
      "name": "owner",
      "outputs": [
        {
          "internalType": "address",
          "name": "",
          "type": "address"
        }
      ],
      "stateMutability": "view",
      "type": "function"
    },
    {
      "inputs": [],
      "name": "renounceOwnership",
      "outputs": [],
      "stateMutability": "nonpayable",
      "type": "function"
    },
    {
      "inputs": [
        {
          "internalType": "address",
          "name": "collection",
          "type": "address"
        },
        {
          "internalType": "uint256",
          "name": "tokenId",
          "type": "uint256"
        }
      ],
      "name": "simpleAction",
      "outputs": [],
      "stateMutability": "nonpayable",
      "type": "function"
    },
    {
      "inputs": [
        {
          "internalType": "address",
          "name": "newOwner",
          "type": "address"
        }
      ],
      "name": "transferOwnership",
      "outputs": [],
      "stateMutability": "nonpayable",
      "type": "function"
    }
  ],
  "bytecode": "0x608060405234801561001057600080fd5b5061002d61002261003960201b60201c565b61004160201b60201c565b60018081905550610105565b600033905090565b60008060009054906101000a900473ffffffffffffffffffffffffffffffffffffffff169050816000806101000a81548173ffffffffffffffffffffffffffffffffffffffff021916908373ffffffffffffffffffffffffffffffffffffffff1602179055508173ffffffffffffffffffffffffffffffffffffffff168173ffffffffffffffffffffffffffffffffffffffff167f8be0079c531659141344cd1fd0a4f28419497f9722a3daafe3b4186f6b6457e060405160405180910390a35050565b610b4a806101146000396000f3fe608060405234801561001057600080fd5b506004361061007d5760003560e01c80638da5cb5b1161005b5780638da5cb5b146100c6578063c81fea35146100e4578063ee1eec9314610100578063f2fde38b1461011c5761007d565b806339af2b7c14610082578063715018a6146100a057806377d73c71146100aa575b600080fd5b61008a610138565b6040516100979190610767565b60405180910390f35b6100a861015e565b005b6100c460048036038101906100bf91906107fb565b6101e6565b005b6100ce610311565b6040516100db919061084a565b60405180910390f35b6100fe60048036038101906100f99190610865565b61033a565b005b61011a600480360381019061011591906107fb565b6103fa565b005b61013660048036038101906101319190610865565b610524565b005b600260009054906101000a900473ffffffffffffffffffffffffffffffffffffffff1681565b61016661061c565b73ffffffffffffffffffffffffffffffffffffffff16610184610311565b73ffffffffffffffffffffffffffffffffffffffff16146101da576040517f08c379a00000000000000000000000000000000000000000000000000000000081526004016101d1906108ef565b60405180910390fd5b6101e46000610624565b565b600260009054906101000a900473ffffffffffffffffffffffffffffffffffffffff1673ffffffffffffffffffffffffffffffffffffffff16637545059c83836001306040518563ffffffff1660e01b81526004016102489493929190610959565b600060405180830381600087803b15801561026257600080fd5b505af1158015610276573d6000803e3d6000fd5b50505050600260009054906101000a900473ffffffffffffffffffffffffffffffffffffffff1673ffffffffffffffffffffffffffffffffffffffff16630a291e2e83836101f46040518463ffffffff1660e01b81526004016102db939291906109d9565b600060405180830381600087803b1580156102f557600080fd5b505af1158015610309573d6000803e3d6000fd5b505050505050565b60008060009054906101000a900473ffffffffffffffffffffffffffffffffffffffff16905090565b61034261061c565b73ffffffffffffffffffffffffffffffffffffffff16610360610311565b73ffffffffffffffffffffffffffffffffffffffff16146103b6576040517f08c379a00000000000000000000000000000000000000000000000000000000081526004016103ad906108ef565b60405180910390fd5b80600260006101000a81548173ffffffffffffffffffffffffffffffffffffffff021916908373ffffffffffffffffffffffffffffffffffffffff16021790555050565b600260009054906101000a900473ffffffffffffffffffffffffffffffffffffffff1673ffffffffffffffffffffffffffffffffffffffff16637545059c83836001306040518563ffffffff1660e01b815260040161045c9493929190610959565b600060405180830381600087803b15801561047657600080fd5b505af115801561048a573d6000803e3d6000fd5b50505050600260009054906101000a900473ffffffffffffffffffffffffffffffffffffffff1673ffffffffffffffffffffffffffffffffffffffff16630a291e2e838360326040518463ffffffff1660e01b81526004016104ee93929190610a4b565b600060405180830381600087803b15801561050857600080fd5b505af115801561051c573d6000803e3d6000fd5b505050505050565b61052c61061c565b73ffffffffffffffffffffffffffffffffffffffff1661054a610311565b73ffffffffffffffffffffffffffffffffffffffff16146105a0576040517f08c379a0000000000000000000000000000000000000000000000000000000008152600401610597906108ef565b60405180910390fd5b600073ffffffffffffffffffffffffffffffffffffffff168173ffffffffffffffffffffffffffffffffffffffff161415610610576040517f08c379a000000000000000000000000000000000000000000000000000000000815260040161060790610af4565b60405180910390fd5b61061981610624565b50565b600033905090565b60008060009054906101000a900473ffffffffffffffffffffffffffffffffffffffff169050816000806101000a81548173ffffffffffffffffffffffffffffffffffffffff021916908373ffffffffffffffffffffffffffffffffffffffff1602179055508173ffffffffffffffffffffffffffffffffffffffff168173ffffffffffffffffffffffffffffffffffffffff167f8be0079c531659141344cd1fd0a4f28419497f9722a3daafe3b4186f6b6457e060405160405180910390a35050565b600073ffffffffffffffffffffffffffffffffffffffff82169050919050565b6000819050919050565b600061072d610728610723846106e8565b610708565b6106e8565b9050919050565b600061073f82610712565b9050919050565b600061075182610734565b9050919050565b61076181610746565b82525050565b600060208201905061077c6000830184610758565b92915050565b600080fd5b6000610792826106e8565b9050919050565b6107a281610787565b81146107ad57600080fd5b50565b6000813590506107bf81610799565b92915050565b6000819050919050565b6107d8816107c5565b81146107e357600080fd5b50565b6000813590506107f5816107cf565b92915050565b6000806040838503121561081257610811610782565b5b6000610820858286016107b0565b9250506020610831858286016107e6565b9150509250929050565b61084481610787565b82525050565b600060208201905061085f600083018461083b565b92915050565b60006020828403121561087b5761087a610782565b5b6000610889848285016107b0565b91505092915050565b600082825260208201905092915050565b7f4f776e61626c653a2063616c6c6572206973206e6f7420746865206f776e6572600082015250565b60006108d9602083610892565b91506108e4826108a3565b602082019050919050565b60006020820190508181036000830152610908816108cc565b9050919050565b610918816107c5565b82525050565b6000819050919050565b600061094361093e6109398461091e565b610708565b6107c5565b9050919050565b61095381610928565b82525050565b600060808201905061096e600083018761083b565b61097b602083018661090f565b610988604083018561094a565b610995606083018461083b565b95945050505050565b6000819050919050565b60006109c36109be6109b98461099e565b610708565b6107c5565b9050919050565b6109d3816109a8565b82525050565b60006060820190506109ee600083018661083b565b6109fb602083018561090f565b610a0860408301846109ca565b949350505050565b6000819050919050565b6000610a35610a30610a2b84610a10565b610708565b6107c5565b9050919050565b610a4581610a1a565b82525050565b6000606082019050610a60600083018661083b565b610a6d602083018561090f565b610a7a6040830184610a3c565b949350505050565b7f4f776e61626c653a206e6577206f776e657220697320746865207a65726f206160008201527f6464726573730000000000000000000000000000000000000000000000000000602082015250565b6000610ade602683610892565b9150610ae982610a82565b604082019050919050565b60006020820190508181036000830152610b0d81610ad1565b905091905056fea2646970667358221220c1c4e8a32ec780abd6ab34603fce7c158eb1ac01258d2239f1c307ed9cc8c77864736f6c63430008090033",
  "linkReferences": {},
  "deployedLinkReferences": {}
}