{
  "_format": "hh-sol-artifact-1",
  "contractName": "HyperXP",
  "sourceName": "contracts/HyperXP.sol",
  "abi": [
    {
      "inputs": [],
      "stateMutability": "nonpayable",
      "type": "constructor"
    },
    {
      "anonymous": false,
      "inputs": [
        {
          "indexed": true,
          "internalType": "address",
          "name": "collection",
          "type": "address"
        }
      ],
      "name": "AddCollection",
      "type": "event"
    },
    {
      "anonymous": false,
      "inputs": [
        {
          "indexed": true,
          "internalType": "address",
          "name": "collection",
          "type": "address"
        },
        {
          "indexed": true,
          "internalType": "uint256",
          "name": "tokenId",
          "type": "uint256"
        },
        {
          "indexed": false,
          "internalType": "uint256",
          "name": "amount",
          "type": "uint256"
        }
      ],
      "name": "AwardXP",
      "type": "event"
    },
    {
      "anonymous": false,
      "inputs": [
        {
          "indexed": true,
          "internalType": "address",
          "name": "previousOwner",
          "type": "address"
        },
        {
          "indexed": true,
          "internalType": "address",
          "name": "newOwner",
          "type": "address"
        }
      ],
      "name": "OwnershipTransferred",
      "type": "event"
    },
    {
      "anonymous": false,
      "inputs": [
        {
          "indexed": true,
          "internalType": "address",
          "name": "collection",
          "type": "address"
        }
      ],
      "name": "RemoveCollection",
      "type": "event"
    },
    {
      "anonymous": false,
      "inputs": [
        {
          "indexed": true,
          "internalType": "address",
          "name": "collection",
          "type": "address"
        },
        {
          "indexed": true,
          "internalType": "uint256",
          "name": "tokenId",
          "type": "uint256"
        },
        {
          "indexed": false,
          "internalType": "uint256",
          "name": "amount",
          "type": "uint256"
        },
        {
          "indexed": true,
          "internalType": "address",
          "name": "to",
          "type": "address"
        }
      ],
      "name": "UseAP",
      "type": "event"
    },
    {
      "inputs": [
        {
          "internalType": "address",
          "name": "collection",
          "type": "address"
        }
      ],
      "name": "_addCollection",
      "outputs": [],
      "stateMutability": "nonpayable",
      "type": "function"
    },
    {
      "inputs": [
        {
          "internalType": "address[]",
          "name": "collections",
          "type": "address[]"
        }
      ],
      "name": "_addCollections",
      "outputs": [],
      "stateMutability": "nonpayable",
      "type": "function"
    },
    {
      "inputs": [
        {
          "internalType": "address",
          "name": "collection",
          "type": "address"
        }
      ],
      "name": "_removeCollection",
      "outputs": [],
      "stateMutability": "nonpayable",
      "type": "function"
    },
    {
      "inputs": [
        {
          "internalType": "uint256",
          "name": "amount",
          "type": "uint256"
        }
      ],
      "name": "_setMaxXP",
      "outputs": [],
      "stateMutability": "nonpayable",
      "type": "function"
    },
    {
      "inputs": [
        {
          "internalType": "address",
          "name": "",
          "type": "address"
        },
        {
          "internalType": "uint256",
          "name": "",
          "type": "uint256"
        }
      ],
      "name": "apBlock",
      "outputs": [
        {
          "internalType": "uint128",
          "name": "lastUse",
          "type": "uint128"
        },
        {
          "internalType": "uint32",
          "name": "apPE",
          "type": "uint32"
        }
      ],
      "stateMutability": "view",
      "type": "function"
    },
    {
      "inputs": [
        {
          "internalType": "address",
          "name": "collection",
          "type": "address"
        },
        {
          "internalType": "uint256",
          "name": "tokenId",
          "type": "uint256"
        }
      ],
      "name": "availableAP",
      "outputs": [
        {
          "internalType": "uint256",
          "name": "",
          "type": "uint256"
        }
      ],
      "stateMutability": "view",
      "type": "function"
    },
    {
      "inputs": [
        {
          "internalType": "address",
          "name": "collection",
          "type": "address"
        },
        {
          "internalType": "uint256",
          "name": "tokenId",
          "type": "uint256"
        },
        {
          "internalType": "uint256",
          "name": "amount",
          "type": "uint256"
        }
      ],
      "name": "awardXP",
      "outputs": [],
      "stateMutability": "nonpayable",
      "type": "function"
    },
    {
      "inputs": [
        {
          "internalType": "address",
          "name": "collection",
          "type": "address"
        },
        {
          "internalType": "uint256",
          "name": "tokenId",
          "type": "uint256"
        }
      ],
      "name": "getLevel",
      "outputs": [
        {
          "internalType": "uint256",
          "name": "",
          "type": "uint256"
        }
      ],
      "stateMutability": "view",
      "type": "function"
    },
    {
      "inputs": [
        {
          "internalType": "address",
          "name": "",
          "type": "address"
        }
      ],
      "name": "hyperAddresses",
      "outputs": [
        {
          "internalType": "bool",
          "name": "",
          "type": "bool"
        }
      ],
      "stateMutability": "view",
      "type": "function"
    },
    {
      "inputs": [],
      "name": "maxXP",
      "outputs": [
        {
          "internalType": "uint256",
          "name": "",
          "type": "uint256"
        }
      ],
      "stateMutability": "view",
      "type": "function"
    },
    {
      "inputs": [],
      "name": "owner",
      "outputs": [
        {
          "internalType": "address",
          "name": "",
          "type": "address"
        }
      ],
      "stateMutability": "view",
      "type": "function"
    },
    {
      "inputs": [],
      "name": "renounceOwnership",
      "outputs": [],
      "stateMutability": "nonpayable",
      "type": "function"
    },
    {
      "inputs": [
        {
          "internalType": "address",
          "name": "newOwner",
          "type": "address"
        }
      ],
      "name": "transferOwnership",
      "outputs": [],
      "stateMutability": "nonpayable",
      "type": "function"
    },
    {
      "inputs": [
        {
          "internalType": "address",
          "name": "collection",
          "type": "address"
        },
        {
          "internalType": "uint256",
          "name": "tokenId",
          "type": "uint256"
        },
        {
          "internalType": "uint256",
          "name": "amount",
          "type": "uint256"
        },
        {
          "internalType": "address",
          "name": "to",
          "type": "address"
        }
      ],
      "name": "useAP",
      "outputs": [],
      "stateMutability": "nonpayable",
      "type": "function"
    },
    {
      "inputs": [
        {
          "internalType": "address",
          "name": "",
          "type": "address"
        },
        {
          "internalType": "uint256",
          "name": "",
          "type": "uint256"
        }
      ],
      "name": "xp",
      "outputs": [
        {
          "internalType": "uint256",
          "name": "",
          "type": "uint256"
        }
      ],
      "stateMutability": "view",
      "type": "function"
    },
    {
      "inputs": [
        {
          "internalType": "address",
          "name": "",
          "type": "address"
        }
      ],
      "name": "xpAlloc",
      "outputs": [
        {
          "internalType": "uint256",
          "name": "",
          "type": "uint256"
        }
      ],
      "stateMutability": "view",
      "type": "function"
    }
  ],
  "bytecode": "0x608060405234801561001057600080fd5b5061002d61002261004260201b60201c565b61004a60201b60201c565b60018081905550610bb860048190555061010e565b600033905090565b60008060009054906101000a900473ffffffffffffffffffffffffffffffffffffffff169050816000806101000a81548173ffffffffffffffffffffffffffffffffffffffff021916908373ffffffffffffffffffffffffffffffffffffffff1602179055508173ffffffffffffffffffffffffffffffffffffffff168173ffffffffffffffffffffffffffffffffffffffff167f8be0079c531659141344cd1fd0a4f28419497f9722a3daafe3b4186f6b6457e060405160405180910390a35050565b611bfc8061011d6000396000f3fe608060405234801561001057600080fd5b50600436106101005760003560e01c80638f148be911610097578063b121f2ac11610066578063b121f2ac146102ac578063bbb8f72b146102dc578063c416fd5c146102f8578063f2fde38b1461031457610100565b80638f148be914610212578063981076461461022e5780639fbb38611461025e578063adcff05f1461027c57610100565b8063715018a6116100d3578063715018a6146101b25780637545059c146101bc57806375b6079a146101d85780638da5cb5b146101f457610100565b80630a291e2e1461010557806318fe9a161461012157806353388ccd1461015257806367e5bcdd14610182575b600080fd5b61011f600480360381019061011a91906113d7565b610330565b005b61013b6004803603810190610136919061142a565b6106bf565b6040516101499291906114b4565b60405180910390f35b61016c6004803603810190610167919061142a565b61071c565b60405161017991906114ec565b60405180910390f35b61019c6004803603810190610197919061142a565b6108ab565b6040516101a991906114ec565b60405180910390f35b6101ba6108d0565b005b6101d660048036038101906101d19190611507565b6108e4565b005b6101f260048036038101906101ed919061156e565b610c10565b005b6101fc610cb6565b60405161020991906115aa565b60405180910390f35b61022c6004803603810190610227919061156e565b610cdf565b005b6102486004803603810190610243919061156e565b610d85565b60405161025591906114ec565b60405180910390f35b610266610d9d565b60405161027391906114ec565b60405180910390f35b6102966004803603810190610291919061156e565b610da3565b6040516102a391906115e0565b60405180910390f35b6102c660048036038101906102c1919061142a565b610dc3565b6040516102d391906114ec565b60405180910390f35b6102f660048036038101906102f191906115fb565b610e8f565b005b610312600480360381019061030d919061168d565b610ea1565b005b61032e6004803603810190610329919061156e565b610fb8565b005b82600260008273ffffffffffffffffffffffffffffffffffffffff1673ffffffffffffffffffffffffffffffffffffffff16815260200190815260200160002060009054906101000a900460ff166103bd576040517f08c379a00000000000000000000000000000000000000000000000000000000081526004016103b490611737565b60405180910390fd5b600660003373ffffffffffffffffffffffffffffffffffffffff1673ffffffffffffffffffffffffffffffffffffffff1681526020019081526020016000205482111561043f576040517f08c379a0000000000000000000000000000000000000000000000000000000008152600401610436906117a3565b60405180910390fd5b81600660003373ffffffffffffffffffffffffffffffffffffffff1673ffffffffffffffffffffffffffffffffffffffff168152602001908152602001600020600082825461048e91906117f2565b9250508190555060045482600360008773ffffffffffffffffffffffffffffffffffffffff1673ffffffffffffffffffffffffffffffffffffffff1681526020019081526020016000206000868152602001908152602001600020546104f49190611826565b111561060257828473ffffffffffffffffffffffffffffffffffffffff167f6620739c2dc8cdb279775be37ad2ed5401f97b5df7edefc9c44112dc8626ed27600360008873ffffffffffffffffffffffffffffffffffffffff1673ffffffffffffffffffffffffffffffffffffffff16815260200190815260200160002060008781526020019081526020016000205460045461059191906117f2565b60405161059e91906114ec565b60405180910390a3600454600360008673ffffffffffffffffffffffffffffffffffffffff1673ffffffffffffffffffffffffffffffffffffffff1681526020019081526020016000206000858152602001908152602001600020819055506106b9565b81600360008673ffffffffffffffffffffffffffffffffffffffff1673ffffffffffffffffffffffffffffffffffffffff168152602001908152602001600020600085815260200190815260200160002060008282546106629190611826565b92505081905550828473ffffffffffffffffffffffffffffffffffffffff167f6620739c2dc8cdb279775be37ad2ed5401f97b5df7edefc9c44112dc8626ed27846040516106b091906114ec565b60405180910390a35b50505050565b6005602052816000526040600020602052806000526040600020600091509150508060000160009054906101000a90046fffffffffffffffffffffffffffffffff16908060000160109054906101000a900463ffffffff16905082565b600082600260008273ffffffffffffffffffffffffffffffffffffffff1673ffffffffffffffffffffffffffffffffffffffff16815260200190815260200160002060009054906101000a900460ff166107ab576040517f08c379a00000000000000000000000000000000000000000000000000000000081526004016107a290611737565b60405180910390fd5b600260008573ffffffffffffffffffffffffffffffffffffffff1673ffffffffffffffffffffffffffffffffffffffff16815260200190815260200160002060009054906101000a900460ff161580610891575061012c600560008673ffffffffffffffffffffffffffffffffffffffff1673ffffffffffffffffffffffffffffffffffffffff168152602001908152602001600020600085815260200190815260200160002060000160009054906101000a90046fffffffffffffffffffffffffffffffff166fffffffffffffffffffffffffffffffff164261088f91906117f2565b105b61089c57600161089f565b60005b60ff1691505092915050565b6003602052816000526040600020602052806000526040600020600091509150505481565b6108d861103c565b6108e260006110ba565b565b83600260008273ffffffffffffffffffffffffffffffffffffffff1673ffffffffffffffffffffffffffffffffffffffff16815260200190815260200160002060009054906101000a900460ff16610971576040517f08c379a000000000000000000000000000000000000000000000000000000000815260040161096890611737565b60405180910390fd5b84843273ffffffffffffffffffffffffffffffffffffffff168273ffffffffffffffffffffffffffffffffffffffff16636352211e836040518263ffffffff1660e01b81526004016109c391906114ec565b60206040518083038186803b1580156109db57600080fd5b505afa1580156109ef573d6000803e3d6000fd5b505050506040513d601f19601f82011682018060405250810190610a139190611891565b73ffffffffffffffffffffffffffffffffffffffff1614610a69576040517f08c379a0000000000000000000000000000000000000000000000000000000008152600401610a609061190a565b60405180910390fd5b610a73878761071c565b851115610ab5576040517f08c379a0000000000000000000000000000000000000000000000000000000008152600401610aac90611976565b60405180910390fd5b42600560008973ffffffffffffffffffffffffffffffffffffffff1673ffffffffffffffffffffffffffffffffffffffff168152602001908152602001600020600088815260200190815260200160002060000160006101000a8154816fffffffffffffffffffffffffffffffff02191690836fffffffffffffffffffffffffffffffff160217905550606485610b4c9190611996565b600660008673ffffffffffffffffffffffffffffffffffffffff1673ffffffffffffffffffffffffffffffffffffffff1681526020019081526020016000206000828254610b9a9190611826565b925050819055508373ffffffffffffffffffffffffffffffffffffffff16868873ffffffffffffffffffffffffffffffffffffffff167f817d0e6ba54a83c43dea14029d368faf235b5d682ce0bdbabd975c9390592a2a88604051610bff91906114ec565b60405180910390a450505050505050565b610c1861103c565b6000600260008373ffffffffffffffffffffffffffffffffffffffff1673ffffffffffffffffffffffffffffffffffffffff16815260200190815260200160002060006101000a81548160ff0219169083151502179055508073ffffffffffffffffffffffffffffffffffffffff167feff1f2850a5fc2e92e191ffa2422b1a5459e2b76685c9b53dd414139ab3185fa60405160405180910390a250565b60008060009054906101000a900473ffffffffffffffffffffffffffffffffffffffff16905090565b610ce761103c565b6001600260008373ffffffffffffffffffffffffffffffffffffffff1673ffffffffffffffffffffffffffffffffffffffff16815260200190815260200160002060006101000a81548160ff0219169083151502179055508073ffffffffffffffffffffffffffffffffffffffff167f6077476a981d09a671dcf75f020b16a4a55b5221b00225c895d94cac2c5a431a60405160405180910390a250565b60066020528060005260406000206000915090505481565b60045481565b60026020528060005260406000206000915054906101000a900460ff1681565b600080600360008573ffffffffffffffffffffffffffffffffffffffff1673ffffffffffffffffffffffffffffffffffffffff16815260200190815260200160002060008481526020019081526020016000205490506041811015610e2c576001915050610e89565b6046811015610e3f576002915050610e89565b60326019610e6583604b610e539190611996565b610271610e609190611826565b61117e565b610e6f91906117f2565b610e799190611a1f565b6001610e859190611826565b9150505b92915050565b610e9761103c565b8060048190555050565b610ea961103c565b60005b82829050811015610fb357600160026000858585818110610ed057610ecf611a50565b5b9050602002016020810190610ee5919061156e565b73ffffffffffffffffffffffffffffffffffffffff1673ffffffffffffffffffffffffffffffffffffffff16815260200190815260200160002060006101000a81548160ff021916908315150217905550828282818110610f4957610f48611a50565b5b9050602002016020810190610f5e919061156e565b73ffffffffffffffffffffffffffffffffffffffff167f6077476a981d09a671dcf75f020b16a4a55b5221b00225c895d94cac2c5a431a60405160405180910390a28080610fab90611a7f565b915050610eac565b505050565b610fc061103c565b600073ffffffffffffffffffffffffffffffffffffffff168173ffffffffffffffffffffffffffffffffffffffff161415611030576040517f08c379a000000000000000000000000000000000000000000000000000000000815260040161102790611b3a565b60405180910390fd5b611039816110ba565b50565b611044611331565b73ffffffffffffffffffffffffffffffffffffffff16611062610cb6565b73ffffffffffffffffffffffffffffffffffffffff16146110b8576040517f08c379a00000000000000000000000000000000000000000000000000000000081526004016110af90611ba6565b60405180910390fd5b565b60008060009054906101000a900473ffffffffffffffffffffffffffffffffffffffff169050816000806101000a81548173ffffffffffffffffffffffffffffffffffffffff021916908373ffffffffffffffffffffffffffffffffffffffff1602179055508173ffffffffffffffffffffffffffffffffffffffff168173ffffffffffffffffffffffffffffffffffffffff167f8be0079c531659141344cd1fd0a4f28419497f9722a3daafe3b4186f6b6457e060405160405180910390a35050565b600080821415611191576000905061132c565b60008290506001915070010000000000000000000000000000000081106111c157608081901c9050604082901b91505b6801000000000000000081106111e057604081901c9050602082901b91505b64010000000081106111fb57602081901c9050601082901b91505b62010000811061121457601081901c9050600882901b91505b610100811061122c57600881901c9050600482901b91505b6010811061124357600481901c9050600282901b91505b6008811061125357600182901b91505b6001828481611265576112646119f0565b5b048301901c9150600182848161127e5761127d6119f0565b5b048301901c91506001828481611297576112966119f0565b5b048301901c915060018284816112b0576112af6119f0565b5b048301901c915060018284816112c9576112c86119f0565b5b048301901c915060018284816112e2576112e16119f0565b5b048301901c915060018284816112fb576112fa6119f0565b5b048301901c91506000828481611314576113136119f0565b5b049050808310156113255782611327565b805b925050505b919050565b600033905090565b600080fd5b600080fd5b600073ffffffffffffffffffffffffffffffffffffffff82169050919050565b600061136e82611343565b9050919050565b61137e81611363565b811461138957600080fd5b50565b60008135905061139b81611375565b92915050565b6000819050919050565b6113b4816113a1565b81146113bf57600080fd5b50565b6000813590506113d1816113ab565b92915050565b6000806000606084860312156113f0576113ef611339565b5b60006113fe8682870161138c565b935050602061140f868287016113c2565b9250506040611420868287016113c2565b9150509250925092565b6000806040838503121561144157611440611339565b5b600061144f8582860161138c565b9250506020611460858286016113c2565b9150509250929050565b60006fffffffffffffffffffffffffffffffff82169050919050565b61148f8161146a565b82525050565b600063ffffffff82169050919050565b6114ae81611495565b82525050565b60006040820190506114c96000830185611486565b6114d660208301846114a5565b9392505050565b6114e6816113a1565b82525050565b600060208201905061150160008301846114dd565b92915050565b6000806000806080858703121561152157611520611339565b5b600061152f8782880161138c565b9450506020611540878288016113c2565b9350506040611551878288016113c2565b92505060606115628782880161138c565b91505092959194509250565b60006020828403121561158457611583611339565b5b60006115928482850161138c565b91505092915050565b6115a481611363565b82525050565b60006020820190506115bf600083018461159b565b92915050565b60008115159050919050565b6115da816115c5565b82525050565b60006020820190506115f560008301846115d1565b92915050565b60006020828403121561161157611610611339565b5b600061161f848285016113c2565b91505092915050565b600080fd5b600080fd5b600080fd5b60008083601f84011261164d5761164c611628565b5b8235905067ffffffffffffffff81111561166a5761166961162d565b5b60208301915083602082028301111561168657611685611632565b5b9250929050565b600080602083850312156116a4576116a3611339565b5b600083013567ffffffffffffffff8111156116c2576116c161133e565b5b6116ce85828601611637565b92509250509250929050565b600082825260208201905092915050565b7f6e6f742079657420696e20687970657220787000000000000000000000000000600082015250565b60006117216013836116da565b915061172c826116eb565b602082019050919050565b6000602082019050818103600083015261175081611714565b9050919050565b7f6e6f7420656e6f75676820585000000000000000000000000000000000000000600082015250565b600061178d600d836116da565b915061179882611757565b602082019050919050565b600060208201905081810360008301526117bc81611780565b9050919050565b7f4e487b7100000000000000000000000000000000000000000000000000000000600052601160045260246000fd5b60006117fd826113a1565b9150611808836113a1565b92508282101561181b5761181a6117c3565b5b828203905092915050565b6000611831826113a1565b915061183c836113a1565b9250827fffffffffffffffffffffffffffffffffffffffffffffffffffffffffffffffff03821115611871576118706117c3565b5b828201905092915050565b60008151905061188b81611375565b92915050565b6000602082840312156118a7576118a6611339565b5b60006118b58482850161187c565b91505092915050565b7f796f752063616e277420706572666f726d207468697320616374696f6e000000600082015250565b60006118f4601d836116da565b91506118ff826118be565b602082019050919050565b60006020820190508181036000830152611923816118e7565b9050919050565b7f6e6f7420656e6f75676820415000000000000000000000000000000000000000600082015250565b6000611960600d836116da565b915061196b8261192a565b602082019050919050565b6000602082019050818103600083015261198f81611953565b9050919050565b60006119a1826113a1565b91506119ac836113a1565b9250817fffffffffffffffffffffffffffffffffffffffffffffffffffffffffffffffff04831182151516156119e5576119e46117c3565b5b828202905092915050565b7f4e487b7100000000000000000000000000000000000000000000000000000000600052601260045260246000fd5b6000611a2a826113a1565b9150611a35836113a1565b925082611a4557611a446119f0565b5b828204905092915050565b7f4e487b7100000000000000000000000000000000000000000000000000000000600052603260045260246000fd5b6000611a8a826113a1565b91507fffffffffffffffffffffffffffffffffffffffffffffffffffffffffffffffff821415611abd57611abc6117c3565b5b600182019050919050565b7f4f776e61626c653a206e6577206f776e657220697320746865207a65726f206160008201527f6464726573730000000000000000000000000000000000000000000000000000602082015250565b6000611b246026836116da565b9150611b2f82611ac8565b604082019050919050565b60006020820190508181036000830152611b5381611b17565b9050919050565b7f4f776e61626c653a2063616c6c6572206973206e6f7420746865206f776e6572600082015250565b6000611b906020836116da565b9150611b9b82611b5a565b602082019050919050565b60006020820190508181036000830152611bbf81611b83565b905091905056fea2646970667358221220f1eefe0a21f710d0c798e1b445d8077f6953b479ff31a103e3fcaf9d0aff5ea164736f6c63430008090033",
  "linkReferences": {},
  "deployedLinkReferences": {}
}