{
  "_format": "hh-sol-artifact-1",
  "contractName": "HyperXP",
  "sourceName": "contracts/HyperXP.sol",
  "abi": [
    {
      "inputs": [],
      "stateMutability": "nonpayable",
      "type": "constructor"
    },
    {
      "anonymous": false,
      "inputs": [
        {
          "indexed": true,
          "internalType": "address",
          "name": "previousOwner",
          "type": "address"
        },
        {
          "indexed": true,
          "internalType": "address",
          "name": "newOwner",
          "type": "address"
        }
      ],
      "name": "OwnershipTransferred",
      "type": "event"
    },
    {
      "inputs": [
        {
          "internalType": "address",
          "name": "collection",
          "type": "address"
        }
      ],
      "name": "_addCollection",
      "outputs": [],
      "stateMutability": "nonpayable",
      "type": "function"
    },
    {
      "inputs": [
        {
          "internalType": "address[]",
          "name": "collections",
          "type": "address[]"
        }
      ],
      "name": "_addCollections",
      "outputs": [],
      "stateMutability": "nonpayable",
      "type": "function"
    },
    {
      "inputs": [
        {
          "internalType": "address",
          "name": "collection",
          "type": "address"
        }
      ],
      "name": "_removeCollection",
      "outputs": [],
      "stateMutability": "nonpayable",
      "type": "function"
    },
    {
      "inputs": [
        {
          "internalType": "uint256",
          "name": "amount",
          "type": "uint256"
        }
      ],
      "name": "_setMaxXP",
      "outputs": [],
      "stateMutability": "nonpayable",
      "type": "function"
    },
    {
      "inputs": [
        {
          "internalType": "address",
          "name": "",
          "type": "address"
        },
        {
          "internalType": "uint256",
          "name": "",
          "type": "uint256"
        }
      ],
      "name": "apBlock",
      "outputs": [
        {
          "internalType": "uint128",
          "name": "lastUse",
          "type": "uint128"
        },
        {
          "internalType": "uint32",
          "name": "apPE",
          "type": "uint32"
        }
      ],
      "stateMutability": "view",
      "type": "function"
    },
    {
      "inputs": [
        {
          "internalType": "address",
          "name": "collection",
          "type": "address"
        },
        {
          "internalType": "uint256",
          "name": "tokenId",
          "type": "uint256"
        }
      ],
      "name": "availableAP",
      "outputs": [
        {
          "internalType": "uint256",
          "name": "",
          "type": "uint256"
        }
      ],
      "stateMutability": "view",
      "type": "function"
    },
    {
      "inputs": [
        {
          "internalType": "address",
          "name": "collection",
          "type": "address"
        },
        {
          "internalType": "uint256",
          "name": "tokenId",
          "type": "uint256"
        },
        {
          "internalType": "uint256",
          "name": "amount",
          "type": "uint256"
        }
      ],
      "name": "awardXP",
      "outputs": [],
      "stateMutability": "nonpayable",
      "type": "function"
    },
    {
      "inputs": [
        {
          "internalType": "address",
          "name": "collection",
          "type": "address"
        },
        {
          "internalType": "uint256",
          "name": "tokenId",
          "type": "uint256"
        }
      ],
      "name": "getLevel",
      "outputs": [
        {
          "internalType": "uint256",
          "name": "",
          "type": "uint256"
        }
      ],
      "stateMutability": "view",
      "type": "function"
    },
    {
      "inputs": [
        {
          "internalType": "address",
          "name": "",
          "type": "address"
        }
      ],
      "name": "hyperAddresses",
      "outputs": [
        {
          "internalType": "bool",
          "name": "",
          "type": "bool"
        }
      ],
      "stateMutability": "view",
      "type": "function"
    },
    {
      "inputs": [],
      "name": "maxXP",
      "outputs": [
        {
          "internalType": "uint256",
          "name": "",
          "type": "uint256"
        }
      ],
      "stateMutability": "view",
      "type": "function"
    },
    {
      "inputs": [],
      "name": "owner",
      "outputs": [
        {
          "internalType": "address",
          "name": "",
          "type": "address"
        }
      ],
      "stateMutability": "view",
      "type": "function"
    },
    {
      "inputs": [],
      "name": "renounceOwnership",
      "outputs": [],
      "stateMutability": "nonpayable",
      "type": "function"
    },
    {
      "inputs": [
        {
          "internalType": "address",
          "name": "newOwner",
          "type": "address"
        }
      ],
      "name": "transferOwnership",
      "outputs": [],
      "stateMutability": "nonpayable",
      "type": "function"
    },
    {
      "inputs": [
        {
          "internalType": "address",
          "name": "collection",
          "type": "address"
        },
        {
          "internalType": "uint256",
          "name": "tokenId",
          "type": "uint256"
        },
        {
          "internalType": "uint256",
          "name": "amount",
          "type": "uint256"
        },
        {
          "internalType": "address",
          "name": "to",
          "type": "address"
        }
      ],
      "name": "useAP",
      "outputs": [],
      "stateMutability": "nonpayable",
      "type": "function"
    },
    {
      "inputs": [
        {
          "internalType": "address",
          "name": "",
          "type": "address"
        },
        {
          "internalType": "uint256",
          "name": "",
          "type": "uint256"
        }
      ],
      "name": "xp",
      "outputs": [
        {
          "internalType": "uint256",
          "name": "",
          "type": "uint256"
        }
      ],
      "stateMutability": "view",
      "type": "function"
    },
    {
      "inputs": [
        {
          "internalType": "address",
          "name": "",
          "type": "address"
        }
      ],
      "name": "xpAlloc",
      "outputs": [
        {
          "internalType": "uint256",
          "name": "",
          "type": "uint256"
        }
      ],
      "stateMutability": "view",
      "type": "function"
    }
  ],
  "bytecode": "0x608060405234801561001057600080fd5b5061002d61002261004260201b60201c565b61004a60201b60201c565b60018081905550610bb860048190555061010e565b600033905090565b60008060009054906101000a900473ffffffffffffffffffffffffffffffffffffffff169050816000806101000a81548173ffffffffffffffffffffffffffffffffffffffff021916908373ffffffffffffffffffffffffffffffffffffffff1602179055508173ffffffffffffffffffffffffffffffffffffffff168173ffffffffffffffffffffffffffffffffffffffff167f8be0079c531659141344cd1fd0a4f28419497f9722a3daafe3b4186f6b6457e060405160405180910390a35050565b611be58061011d6000396000f3fe608060405234801561001057600080fd5b50600436106101005760003560e01c80638f148be911610097578063b121f2ac11610066578063b121f2ac146102ac578063bbb8f72b146102dc578063c416fd5c146102f8578063f2fde38b1461031457610100565b80638f148be914610212578063981076461461022e5780639fbb38611461025e578063adcff05f1461027c57610100565b8063715018a6116100d3578063715018a6146101b25780637545059c146101bc57806375b6079a146101d85780638da5cb5b146101f457610100565b80630a291e2e1461010557806318fe9a161461012157806353388ccd1461015257806367e5bcdd14610182575b600080fd5b61011f600480360381019061011a91906113c0565b610330565b005b61013b60048036038101906101369190611413565b6105c4565b60405161014992919061149d565b60405180910390f35b61016c60048036038101906101679190611413565b610621565b60405161017991906114d5565b60405180910390f35b61019c60048036038101906101979190611413565b6107b0565b6040516101a991906114d5565b60405180910390f35b6101ba6107d5565b005b6101d660048036038101906101d191906114f0565b61085d565b005b6101f260048036038101906101ed9190611557565b610b23565b005b6101fc610bfa565b6040516102099190611593565b60405180910390f35b61022c60048036038101906102279190611557565b610c23565b005b61024860048036038101906102439190611557565b610cfa565b60405161025591906114d5565b60405180910390f35b610266610d12565b60405161027391906114d5565b60405180910390f35b61029660048036038101906102919190611557565b610d18565b6040516102a391906115c9565b60405180910390f35b6102c660048036038101906102c19190611413565b610d38565b6040516102d391906114d5565b60405180910390f35b6102f660048036038101906102f191906115e4565b610e04565b005b610312600480360381019061030d9190611676565b610e8a565b005b61032e60048036038101906103299190611557565b610fab565b005b82600260008273ffffffffffffffffffffffffffffffffffffffff1673ffffffffffffffffffffffffffffffffffffffff16815260200190815260200160002060009054906101000a900460ff166103bd576040517f08c379a00000000000000000000000000000000000000000000000000000000081526004016103b490611720565b60405180910390fd5b600660003373ffffffffffffffffffffffffffffffffffffffff1673ffffffffffffffffffffffffffffffffffffffff1681526020019081526020016000205482111561043f576040517f08c379a00000000000000000000000000000000000000000000000000000000081526004016104369061178c565b60405180910390fd5b81600660003373ffffffffffffffffffffffffffffffffffffffff1673ffffffffffffffffffffffffffffffffffffffff168152602001908152602001600020600082825461048e91906117db565b9250508190555060045482600360008773ffffffffffffffffffffffffffffffffffffffff1673ffffffffffffffffffffffffffffffffffffffff1681526020019081526020016000206000868152602001908152602001600020546104f4919061180f565b111561055657600454600360008673ffffffffffffffffffffffffffffffffffffffff1673ffffffffffffffffffffffffffffffffffffffff1681526020019081526020016000206000858152602001908152602001600020819055506105be565b81600360008673ffffffffffffffffffffffffffffffffffffffff1673ffffffffffffffffffffffffffffffffffffffff168152602001908152602001600020600085815260200190815260200160002060008282546105b6919061180f565b925050819055505b50505050565b6005602052816000526040600020602052806000526040600020600091509150508060000160009054906101000a90046fffffffffffffffffffffffffffffffff16908060000160109054906101000a900463ffffffff16905082565b600082600260008273ffffffffffffffffffffffffffffffffffffffff1673ffffffffffffffffffffffffffffffffffffffff16815260200190815260200160002060009054906101000a900460ff166106b0576040517f08c379a00000000000000000000000000000000000000000000000000000000081526004016106a790611720565b60405180910390fd5b600260008573ffffffffffffffffffffffffffffffffffffffff1673ffffffffffffffffffffffffffffffffffffffff16815260200190815260200160002060009054906101000a900460ff161580610796575061012c600560008673ffffffffffffffffffffffffffffffffffffffff1673ffffffffffffffffffffffffffffffffffffffff168152602001908152602001600020600085815260200190815260200160002060000160009054906101000a90046fffffffffffffffffffffffffffffffff166fffffffffffffffffffffffffffffffff164261079491906117db565b105b6107a15760016107a4565b60005b60ff1691505092915050565b6003602052816000526040600020602052806000526040600020600091509150505481565b6107dd6110a3565b73ffffffffffffffffffffffffffffffffffffffff166107fb610bfa565b73ffffffffffffffffffffffffffffffffffffffff1614610851576040517f08c379a0000000000000000000000000000000000000000000000000000000008152600401610848906118b1565b60405180910390fd5b61085b60006110ab565b565b83600260008273ffffffffffffffffffffffffffffffffffffffff1673ffffffffffffffffffffffffffffffffffffffff16815260200190815260200160002060009054906101000a900460ff166108ea576040517f08c379a00000000000000000000000000000000000000000000000000000000081526004016108e190611720565b60405180910390fd5b84843273ffffffffffffffffffffffffffffffffffffffff168273ffffffffffffffffffffffffffffffffffffffff16636352211e836040518263ffffffff1660e01b815260040161093c91906114d5565b60206040518083038186803b15801561095457600080fd5b505afa158015610968573d6000803e3d6000fd5b505050506040513d601f19601f8201168201806040525081019061098c91906118e6565b73ffffffffffffffffffffffffffffffffffffffff16146109e2576040517f08c379a00000000000000000000000000000000000000000000000000000000081526004016109d99061195f565b60405180910390fd5b6109ec8787610621565b851115610a2e576040517f08c379a0000000000000000000000000000000000000000000000000000000008152600401610a25906119cb565b60405180910390fd5b42600560008973ffffffffffffffffffffffffffffffffffffffff1673ffffffffffffffffffffffffffffffffffffffff168152602001908152602001600020600088815260200190815260200160002060000160006101000a8154816fffffffffffffffffffffffffffffffff02191690836fffffffffffffffffffffffffffffffff16021790555060c885610ac591906119eb565b600660008673ffffffffffffffffffffffffffffffffffffffff1673ffffffffffffffffffffffffffffffffffffffff1681526020019081526020016000206000828254610b13919061180f565b9250508190555050505050505050565b610b2b6110a3565b73ffffffffffffffffffffffffffffffffffffffff16610b49610bfa565b73ffffffffffffffffffffffffffffffffffffffff1614610b9f576040517f08c379a0000000000000000000000000000000000000000000000000000000008152600401610b96906118b1565b60405180910390fd5b6000600260008373ffffffffffffffffffffffffffffffffffffffff1673ffffffffffffffffffffffffffffffffffffffff16815260200190815260200160002060006101000a81548160ff02191690831515021790555050565b60008060009054906101000a900473ffffffffffffffffffffffffffffffffffffffff16905090565b610c2b6110a3565b73ffffffffffffffffffffffffffffffffffffffff16610c49610bfa565b73ffffffffffffffffffffffffffffffffffffffff1614610c9f576040517f08c379a0000000000000000000000000000000000000000000000000000000008152600401610c96906118b1565b60405180910390fd5b6001600260008373ffffffffffffffffffffffffffffffffffffffff1673ffffffffffffffffffffffffffffffffffffffff16815260200190815260200160002060006101000a81548160ff02191690831515021790555050565b60066020528060005260406000206000915090505481565b60045481565b60026020528060005260406000206000915054906101000a900460ff1681565b600080600360008573ffffffffffffffffffffffffffffffffffffffff1673ffffffffffffffffffffffffffffffffffffffff16815260200190815260200160002060008481526020019081526020016000205490506041811015610da1576001915050610dfe565b6046811015610db4576002915050610dfe565b60326019610dda83604b610dc891906119eb565b610271610dd5919061180f565b61116f565b610de491906117db565b610dee9190611a74565b6001610dfa919061180f565b9150505b92915050565b610e0c6110a3565b73ffffffffffffffffffffffffffffffffffffffff16610e2a610bfa565b73ffffffffffffffffffffffffffffffffffffffff1614610e80576040517f08c379a0000000000000000000000000000000000000000000000000000000008152600401610e77906118b1565b60405180910390fd5b8060048190555050565b610e926110a3565b73ffffffffffffffffffffffffffffffffffffffff16610eb0610bfa565b73ffffffffffffffffffffffffffffffffffffffff1614610f06576040517f08c379a0000000000000000000000000000000000000000000000000000000008152600401610efd906118b1565b60405180910390fd5b60005b82829050811015610fa657600160026000858585818110610f2d57610f2c611aa5565b5b9050602002016020810190610f429190611557565b73ffffffffffffffffffffffffffffffffffffffff1673ffffffffffffffffffffffffffffffffffffffff16815260200190815260200160002060006101000a81548160ff0219169083151502179055508080610f9e90611ad4565b915050610f09565b505050565b610fb36110a3565b73ffffffffffffffffffffffffffffffffffffffff16610fd1610bfa565b73ffffffffffffffffffffffffffffffffffffffff1614611027576040517f08c379a000000000000000000000000000000000000000000000000000000000815260040161101e906118b1565b60405180910390fd5b600073ffffffffffffffffffffffffffffffffffffffff168173ffffffffffffffffffffffffffffffffffffffff161415611097576040517f08c379a000000000000000000000000000000000000000000000000000000000815260040161108e90611b8f565b60405180910390fd5b6110a0816110ab565b50565b600033905090565b60008060009054906101000a900473ffffffffffffffffffffffffffffffffffffffff169050816000806101000a81548173ffffffffffffffffffffffffffffffffffffffff021916908373ffffffffffffffffffffffffffffffffffffffff1602179055508173ffffffffffffffffffffffffffffffffffffffff168173ffffffffffffffffffffffffffffffffffffffff167f8be0079c531659141344cd1fd0a4f28419497f9722a3daafe3b4186f6b6457e060405160405180910390a35050565b600080821415611182576000905061131d565b60008290506001915070010000000000000000000000000000000081106111b257608081901c9050604082901b91505b6801000000000000000081106111d157604081901c9050602082901b91505b64010000000081106111ec57602081901c9050601082901b91505b62010000811061120557601081901c9050600882901b91505b610100811061121d57600881901c9050600482901b91505b6010811061123457600481901c9050600282901b91505b6008811061124457600182901b91505b600182848161125657611255611a45565b5b048301901c9150600182848161126f5761126e611a45565b5b048301901c9150600182848161128857611287611a45565b5b048301901c915060018284816112a1576112a0611a45565b5b048301901c915060018284816112ba576112b9611a45565b5b048301901c915060018284816112d3576112d2611a45565b5b048301901c915060018284816112ec576112eb611a45565b5b048301901c9150600082848161130557611304611a45565b5b049050808310156113165782611318565b805b925050505b919050565b600080fd5b600080fd5b600073ffffffffffffffffffffffffffffffffffffffff82169050919050565b60006113578261132c565b9050919050565b6113678161134c565b811461137257600080fd5b50565b6000813590506113848161135e565b92915050565b6000819050919050565b61139d8161138a565b81146113a857600080fd5b50565b6000813590506113ba81611394565b92915050565b6000806000606084860312156113d9576113d8611322565b5b60006113e786828701611375565b93505060206113f8868287016113ab565b9250506040611409868287016113ab565b9150509250925092565b6000806040838503121561142a57611429611322565b5b600061143885828601611375565b9250506020611449858286016113ab565b9150509250929050565b60006fffffffffffffffffffffffffffffffff82169050919050565b61147881611453565b82525050565b600063ffffffff82169050919050565b6114978161147e565b82525050565b60006040820190506114b2600083018561146f565b6114bf602083018461148e565b9392505050565b6114cf8161138a565b82525050565b60006020820190506114ea60008301846114c6565b92915050565b6000806000806080858703121561150a57611509611322565b5b600061151887828801611375565b9450506020611529878288016113ab565b935050604061153a878288016113ab565b925050606061154b87828801611375565b91505092959194509250565b60006020828403121561156d5761156c611322565b5b600061157b84828501611375565b91505092915050565b61158d8161134c565b82525050565b60006020820190506115a86000830184611584565b92915050565b60008115159050919050565b6115c3816115ae565b82525050565b60006020820190506115de60008301846115ba565b92915050565b6000602082840312156115fa576115f9611322565b5b6000611608848285016113ab565b91505092915050565b600080fd5b600080fd5b600080fd5b60008083601f84011261163657611635611611565b5b8235905067ffffffffffffffff81111561165357611652611616565b5b60208301915083602082028301111561166f5761166e61161b565b5b9250929050565b6000806020838503121561168d5761168c611322565b5b600083013567ffffffffffffffff8111156116ab576116aa611327565b5b6116b785828601611620565b92509250509250929050565b600082825260208201905092915050565b7f6e6f742079657420696e20687970657220787000000000000000000000000000600082015250565b600061170a6013836116c3565b9150611715826116d4565b602082019050919050565b60006020820190508181036000830152611739816116fd565b9050919050565b7f6e6f7420656e6f75676820585000000000000000000000000000000000000000600082015250565b6000611776600d836116c3565b915061178182611740565b602082019050919050565b600060208201905081810360008301526117a581611769565b9050919050565b7f4e487b7100000000000000000000000000000000000000000000000000000000600052601160045260246000fd5b60006117e68261138a565b91506117f18361138a565b925082821015611804576118036117ac565b5b828203905092915050565b600061181a8261138a565b91506118258361138a565b9250827fffffffffffffffffffffffffffffffffffffffffffffffffffffffffffffffff0382111561185a576118596117ac565b5b828201905092915050565b7f4f776e61626c653a2063616c6c6572206973206e6f7420746865206f776e6572600082015250565b600061189b6020836116c3565b91506118a682611865565b602082019050919050565b600060208201905081810360008301526118ca8161188e565b9050919050565b6000815190506118e08161135e565b92915050565b6000602082840312156118fc576118fb611322565b5b600061190a848285016118d1565b91505092915050565b7f796f752063616e277420706572666f726d207468697320616374696f6e000000600082015250565b6000611949601d836116c3565b915061195482611913565b602082019050919050565b600060208201905081810360008301526119788161193c565b9050919050565b7f6e6f7420656e6f75676820415000000000000000000000000000000000000000600082015250565b60006119b5600d836116c3565b91506119c08261197f565b602082019050919050565b600060208201905081810360008301526119e4816119a8565b9050919050565b60006119f68261138a565b9150611a018361138a565b9250817fffffffffffffffffffffffffffffffffffffffffffffffffffffffffffffffff0483118215151615611a3a57611a396117ac565b5b828202905092915050565b7f4e487b7100000000000000000000000000000000000000000000000000000000600052601260045260246000fd5b6000611a7f8261138a565b9150611a8a8361138a565b925082611a9a57611a99611a45565b5b828204905092915050565b7f4e487b7100000000000000000000000000000000000000000000000000000000600052603260045260246000fd5b6000611adf8261138a565b91507fffffffffffffffffffffffffffffffffffffffffffffffffffffffffffffffff821415611b1257611b116117ac565b5b600182019050919050565b7f4f776e61626c653a206e6577206f776e657220697320746865207a65726f206160008201527f6464726573730000000000000000000000000000000000000000000000000000602082015250565b6000611b796026836116c3565b9150611b8482611b1d565b604082019050919050565b60006020820190508181036000830152611ba881611b6c565b905091905056fea2646970667358221220e9acad9ffafd7776846e04bc26d4c0ca702e533762a0bb77383431abbdfa287d64736f6c63430008090033",
  "linkReferences": {},
  "deployedLinkReferences": {}
}