{
  "_format": "hh-sol-artifact-1",
  "contractName": "HyperXP",
  "sourceName": "contracts/HyperXP.sol",
  "abi": [
    {
      "inputs": [],
      "stateMutability": "nonpayable",
      "type": "constructor"
    },
    {
      "anonymous": false,
      "inputs": [
        {
          "indexed": true,
          "internalType": "address",
          "name": "previousOwner",
          "type": "address"
        },
        {
          "indexed": true,
          "internalType": "address",
          "name": "newOwner",
          "type": "address"
        }
      ],
      "name": "OwnershipTransferred",
      "type": "event"
    },
    {
      "inputs": [
        {
          "internalType": "address",
          "name": "collection",
          "type": "address"
        }
      ],
      "name": "_addCollection",
      "outputs": [],
      "stateMutability": "nonpayable",
      "type": "function"
    },
    {
      "inputs": [
        {
          "internalType": "address[]",
          "name": "collections",
          "type": "address[]"
        }
      ],
      "name": "_addCollections",
      "outputs": [],
      "stateMutability": "nonpayable",
      "type": "function"
    },
    {
      "inputs": [
        {
          "internalType": "address",
          "name": "collection",
          "type": "address"
        }
      ],
      "name": "_removeCollection",
      "outputs": [],
      "stateMutability": "nonpayable",
      "type": "function"
    },
    {
      "inputs": [
        {
          "internalType": "address",
          "name": "",
          "type": "address"
        },
        {
          "internalType": "uint256",
          "name": "",
          "type": "uint256"
        }
      ],
      "name": "apBlock",
      "outputs": [
        {
          "internalType": "uint256",
          "name": "",
          "type": "uint256"
        }
      ],
      "stateMutability": "view",
      "type": "function"
    },
    {
      "inputs": [
        {
          "internalType": "address",
          "name": "collection",
          "type": "address"
        },
        {
          "internalType": "uint256",
          "name": "tokenId",
          "type": "uint256"
        }
      ],
      "name": "availableAP",
      "outputs": [
        {
          "internalType": "uint256",
          "name": "",
          "type": "uint256"
        }
      ],
      "stateMutability": "view",
      "type": "function"
    },
    {
      "inputs": [
        {
          "internalType": "address",
          "name": "collection",
          "type": "address"
        },
        {
          "internalType": "uint256",
          "name": "tokenId",
          "type": "uint256"
        },
        {
          "internalType": "uint256",
          "name": "amount",
          "type": "uint256"
        }
      ],
      "name": "awardXP",
      "outputs": [],
      "stateMutability": "nonpayable",
      "type": "function"
    },
    {
      "inputs": [
        {
          "internalType": "address",
          "name": "",
          "type": "address"
        }
      ],
      "name": "hyperAddresses",
      "outputs": [
        {
          "internalType": "bool",
          "name": "",
          "type": "bool"
        }
      ],
      "stateMutability": "view",
      "type": "function"
    },
    {
      "inputs": [],
      "name": "owner",
      "outputs": [
        {
          "internalType": "address",
          "name": "",
          "type": "address"
        }
      ],
      "stateMutability": "view",
      "type": "function"
    },
    {
      "inputs": [],
      "name": "renounceOwnership",
      "outputs": [],
      "stateMutability": "nonpayable",
      "type": "function"
    },
    {
      "inputs": [
        {
          "internalType": "address",
          "name": "newOwner",
          "type": "address"
        }
      ],
      "name": "transferOwnership",
      "outputs": [],
      "stateMutability": "nonpayable",
      "type": "function"
    },
    {
      "inputs": [
        {
          "internalType": "address",
          "name": "collection",
          "type": "address"
        },
        {
          "internalType": "uint256",
          "name": "tokenId",
          "type": "uint256"
        },
        {
          "internalType": "uint256",
          "name": "amount",
          "type": "uint256"
        },
        {
          "internalType": "address",
          "name": "to",
          "type": "address"
        }
      ],
      "name": "useAP",
      "outputs": [],
      "stateMutability": "nonpayable",
      "type": "function"
    },
    {
      "inputs": [
        {
          "internalType": "address",
          "name": "",
          "type": "address"
        },
        {
          "internalType": "uint256",
          "name": "",
          "type": "uint256"
        }
      ],
      "name": "xp",
      "outputs": [
        {
          "internalType": "uint256",
          "name": "",
          "type": "uint256"
        }
      ],
      "stateMutability": "view",
      "type": "function"
    },
    {
      "inputs": [
        {
          "internalType": "address",
          "name": "",
          "type": "address"
        }
      ],
      "name": "xpAlloc",
      "outputs": [
        {
          "internalType": "uint256",
          "name": "",
          "type": "uint256"
        }
      ],
      "stateMutability": "view",
      "type": "function"
    }
  ],
  "bytecode": "0x608060405234801561001057600080fd5b5061002d61002261003960201b60201c565b61004160201b60201c565b60018081905550610105565b600033905090565b60008060009054906101000a900473ffffffffffffffffffffffffffffffffffffffff169050816000806101000a81548173ffffffffffffffffffffffffffffffffffffffff021916908373ffffffffffffffffffffffffffffffffffffffff1602179055508173ffffffffffffffffffffffffffffffffffffffff168173ffffffffffffffffffffffffffffffffffffffff167f8be0079c531659141344cd1fd0a4f28419497f9722a3daafe3b4186f6b6457e060405160405180910390a35050565b6115de806101146000396000f3fe608060405234801561001057600080fd5b50600436106100cf5760003560e01c806375b6079a1161008c578063981076461161006657806398107646146101fc578063adcff05f1461022c578063c416fd5c1461025c578063f2fde38b14610278576100cf565b806375b6079a146101a65780638da5cb5b146101c25780638f148be9146101e0576100cf565b80630a291e2e146100d457806318fe9a16146100f057806353388ccd1461012057806367e5bcdd14610150578063715018a6146101805780637545059c1461018a575b600080fd5b6100ee60048036038101906100e99190610eb9565b610294565b005b61010a60048036038101906101059190610f0c565b610466565b6040516101179190610f5b565b60405180910390f35b61013a60048036038101906101359190610f0c565b61048b565b6040516101479190610f5b565b60405180910390f35b61016a60048036038101906101659190610f0c565b6105e9565b6040516101779190610f5b565b60405180910390f35b61018861060e565b005b6101a4600480360381019061019f9190610f76565b610696565b005b6101c060048036038101906101bb9190610fdd565b610927565b005b6101ca6109fe565b6040516101d79190611019565b60405180910390f35b6101fa60048036038101906101f59190610fdd565b610a27565b005b61021660048036038101906102119190610fdd565b610afe565b6040516102239190610f5b565b60405180910390f35b61024660048036038101906102419190610fdd565b610b16565b604051610253919061104f565b60405180910390f35b610276600480360381019061027191906110cf565b610b36565b005b610292600480360381019061028d9190610fdd565b610c57565b005b82600260008273ffffffffffffffffffffffffffffffffffffffff1673ffffffffffffffffffffffffffffffffffffffff16815260200190815260200160002060009054906101000a900460ff16610321576040517f08c379a000000000000000000000000000000000000000000000000000000000815260040161031890611179565b60405180910390fd5b600560003373ffffffffffffffffffffffffffffffffffffffff1673ffffffffffffffffffffffffffffffffffffffff168152602001908152602001600020548211156103a3576040517f08c379a000000000000000000000000000000000000000000000000000000000815260040161039a906111e5565b60405180910390fd5b81600560003373ffffffffffffffffffffffffffffffffffffffff1673ffffffffffffffffffffffffffffffffffffffff16815260200190815260200160002060008282546103f29190611234565b9250508190555081600360008673ffffffffffffffffffffffffffffffffffffffff1673ffffffffffffffffffffffffffffffffffffffff168152602001908152602001600020600085815260200190815260200160002060008282546104599190611268565b9250508190555050505050565b6004602052816000526040600020602052806000526040600020600091509150505481565b600082600260008273ffffffffffffffffffffffffffffffffffffffff1673ffffffffffffffffffffffffffffffffffffffff16815260200190815260200160002060009054906101000a900460ff1661051a576040517f08c379a000000000000000000000000000000000000000000000000000000000815260040161051190611179565b60405180910390fd5b600260008573ffffffffffffffffffffffffffffffffffffffff1673ffffffffffffffffffffffffffffffffffffffff16815260200190815260200160002060009054906101000a900460ff1615806105cf575061012c600460008673ffffffffffffffffffffffffffffffffffffffff1673ffffffffffffffffffffffffffffffffffffffff168152602001908152602001600020600085815260200190815260200160002054426105cd9190611234565b105b6105da5760016105dd565b60005b60ff1691505092915050565b6003602052816000526040600020602052806000526040600020600091509150505481565b610616610d4f565b73ffffffffffffffffffffffffffffffffffffffff166106346109fe565b73ffffffffffffffffffffffffffffffffffffffff161461068a576040517f08c379a00000000000000000000000000000000000000000000000000000000081526004016106819061130a565b60405180910390fd5b6106946000610d57565b565b83600260008273ffffffffffffffffffffffffffffffffffffffff1673ffffffffffffffffffffffffffffffffffffffff16815260200190815260200160002060009054906101000a900460ff16610723576040517f08c379a000000000000000000000000000000000000000000000000000000000815260040161071a90611179565b60405180910390fd5b84843273ffffffffffffffffffffffffffffffffffffffff168273ffffffffffffffffffffffffffffffffffffffff16636352211e836040518263ffffffff1660e01b81526004016107759190610f5b565b60206040518083038186803b15801561078d57600080fd5b505afa1580156107a1573d6000803e3d6000fd5b505050506040513d601f19601f820116820180604052508101906107c5919061133f565b73ffffffffffffffffffffffffffffffffffffffff161461081b576040517f08c379a0000000000000000000000000000000000000000000000000000000008152600401610812906113b8565b60405180910390fd5b610825878761048b565b851115610867576040517f08c379a000000000000000000000000000000000000000000000000000000000815260040161085e90611424565b60405180910390fd5b42600460008973ffffffffffffffffffffffffffffffffffffffff1673ffffffffffffffffffffffffffffffffffffffff16815260200190815260200160002060008881526020019081526020016000208190555060c8856108c99190611444565b600560008673ffffffffffffffffffffffffffffffffffffffff1673ffffffffffffffffffffffffffffffffffffffff16815260200190815260200160002060008282546109179190611268565b9250508190555050505050505050565b61092f610d4f565b73ffffffffffffffffffffffffffffffffffffffff1661094d6109fe565b73ffffffffffffffffffffffffffffffffffffffff16146109a3576040517f08c379a000000000000000000000000000000000000000000000000000000000815260040161099a9061130a565b60405180910390fd5b6000600260008373ffffffffffffffffffffffffffffffffffffffff1673ffffffffffffffffffffffffffffffffffffffff16815260200190815260200160002060006101000a81548160ff02191690831515021790555050565b60008060009054906101000a900473ffffffffffffffffffffffffffffffffffffffff16905090565b610a2f610d4f565b73ffffffffffffffffffffffffffffffffffffffff16610a4d6109fe565b73ffffffffffffffffffffffffffffffffffffffff1614610aa3576040517f08c379a0000000000000000000000000000000000000000000000000000000008152600401610a9a9061130a565b60405180910390fd5b6001600260008373ffffffffffffffffffffffffffffffffffffffff1673ffffffffffffffffffffffffffffffffffffffff16815260200190815260200160002060006101000a81548160ff02191690831515021790555050565b60056020528060005260406000206000915090505481565b60026020528060005260406000206000915054906101000a900460ff1681565b610b3e610d4f565b73ffffffffffffffffffffffffffffffffffffffff16610b5c6109fe565b73ffffffffffffffffffffffffffffffffffffffff1614610bb2576040517f08c379a0000000000000000000000000000000000000000000000000000000008152600401610ba99061130a565b60405180910390fd5b60005b82829050811015610c5257600160026000858585818110610bd957610bd861149e565b5b9050602002016020810190610bee9190610fdd565b73ffffffffffffffffffffffffffffffffffffffff1673ffffffffffffffffffffffffffffffffffffffff16815260200190815260200160002060006101000a81548160ff0219169083151502179055508080610c4a906114cd565b915050610bb5565b505050565b610c5f610d4f565b73ffffffffffffffffffffffffffffffffffffffff16610c7d6109fe565b73ffffffffffffffffffffffffffffffffffffffff1614610cd3576040517f08c379a0000000000000000000000000000000000000000000000000000000008152600401610cca9061130a565b60405180910390fd5b600073ffffffffffffffffffffffffffffffffffffffff168173ffffffffffffffffffffffffffffffffffffffff161415610d43576040517f08c379a0000000000000000000000000000000000000000000000000000000008152600401610d3a90611588565b60405180910390fd5b610d4c81610d57565b50565b600033905090565b60008060009054906101000a900473ffffffffffffffffffffffffffffffffffffffff169050816000806101000a81548173ffffffffffffffffffffffffffffffffffffffff021916908373ffffffffffffffffffffffffffffffffffffffff1602179055508173ffffffffffffffffffffffffffffffffffffffff168173ffffffffffffffffffffffffffffffffffffffff167f8be0079c531659141344cd1fd0a4f28419497f9722a3daafe3b4186f6b6457e060405160405180910390a35050565b600080fd5b600080fd5b600073ffffffffffffffffffffffffffffffffffffffff82169050919050565b6000610e5082610e25565b9050919050565b610e6081610e45565b8114610e6b57600080fd5b50565b600081359050610e7d81610e57565b92915050565b6000819050919050565b610e9681610e83565b8114610ea157600080fd5b50565b600081359050610eb381610e8d565b92915050565b600080600060608486031215610ed257610ed1610e1b565b5b6000610ee086828701610e6e565b9350506020610ef186828701610ea4565b9250506040610f0286828701610ea4565b9150509250925092565b60008060408385031215610f2357610f22610e1b565b5b6000610f3185828601610e6e565b9250506020610f4285828601610ea4565b9150509250929050565b610f5581610e83565b82525050565b6000602082019050610f706000830184610f4c565b92915050565b60008060008060808587031215610f9057610f8f610e1b565b5b6000610f9e87828801610e6e565b9450506020610faf87828801610ea4565b9350506040610fc087828801610ea4565b9250506060610fd187828801610e6e565b91505092959194509250565b600060208284031215610ff357610ff2610e1b565b5b600061100184828501610e6e565b91505092915050565b61101381610e45565b82525050565b600060208201905061102e600083018461100a565b92915050565b60008115159050919050565b61104981611034565b82525050565b60006020820190506110646000830184611040565b92915050565b600080fd5b600080fd5b600080fd5b60008083601f84011261108f5761108e61106a565b5b8235905067ffffffffffffffff8111156110ac576110ab61106f565b5b6020830191508360208202830111156110c8576110c7611074565b5b9250929050565b600080602083850312156110e6576110e5610e1b565b5b600083013567ffffffffffffffff81111561110457611103610e20565b5b61111085828601611079565b92509250509250929050565b600082825260208201905092915050565b7f6e6f742079657420696e20687970657220787000000000000000000000000000600082015250565b600061116360138361111c565b915061116e8261112d565b602082019050919050565b6000602082019050818103600083015261119281611156565b9050919050565b7f6e6f7420656e6f75676820585000000000000000000000000000000000000000600082015250565b60006111cf600d8361111c565b91506111da82611199565b602082019050919050565b600060208201905081810360008301526111fe816111c2565b9050919050565b7f4e487b7100000000000000000000000000000000000000000000000000000000600052601160045260246000fd5b600061123f82610e83565b915061124a83610e83565b92508282101561125d5761125c611205565b5b828203905092915050565b600061127382610e83565b915061127e83610e83565b9250827fffffffffffffffffffffffffffffffffffffffffffffffffffffffffffffffff038211156112b3576112b2611205565b5b828201905092915050565b7f4f776e61626c653a2063616c6c6572206973206e6f7420746865206f776e6572600082015250565b60006112f460208361111c565b91506112ff826112be565b602082019050919050565b60006020820190508181036000830152611323816112e7565b9050919050565b60008151905061133981610e57565b92915050565b60006020828403121561135557611354610e1b565b5b60006113638482850161132a565b91505092915050565b7f796f752063616e277420706572666f726d207468697320616374696f6e000000600082015250565b60006113a2601d8361111c565b91506113ad8261136c565b602082019050919050565b600060208201905081810360008301526113d181611395565b9050919050565b7f6e6f7420656e6f75676820415000000000000000000000000000000000000000600082015250565b600061140e600d8361111c565b9150611419826113d8565b602082019050919050565b6000602082019050818103600083015261143d81611401565b9050919050565b600061144f82610e83565b915061145a83610e83565b9250817fffffffffffffffffffffffffffffffffffffffffffffffffffffffffffffffff048311821515161561149357611492611205565b5b828202905092915050565b7f4e487b7100000000000000000000000000000000000000000000000000000000600052603260045260246000fd5b60006114d882610e83565b91507fffffffffffffffffffffffffffffffffffffffffffffffffffffffffffffffff82141561150b5761150a611205565b5b600182019050919050565b7f4f776e61626c653a206e6577206f776e657220697320746865207a65726f206160008201527f6464726573730000000000000000000000000000000000000000000000000000602082015250565b600061157260268361111c565b915061157d82611516565b604082019050919050565b600060208201905081810360008301526115a181611565565b905091905056fea26469706673582212208265ba0e46dfcfc3c08329ca58a4f6646507d373eb24901e2a7858147db8a70564736f6c63430008090033",
  "linkReferences": {},
  "deployedLinkReferences": {}
}