{
  "_format": "hh-sol-artifact-1",
  "contractName": "FLoot",
  "sourceName": "contracts/fLoot.sol",
  "abi": [
    {
      "inputs": [],
      "stateMutability": "nonpayable",
      "type": "constructor"
    },
    {
      "anonymous": false,
      "inputs": [
        {
          "indexed": true,
          "internalType": "address",
          "name": "owner",
          "type": "address"
        },
        {
          "indexed": true,
          "internalType": "address",
          "name": "approved",
          "type": "address"
        },
        {
          "indexed": true,
          "internalType": "uint256",
          "name": "tokenId",
          "type": "uint256"
        }
      ],
      "name": "Approval",
      "type": "event"
    },
    {
      "anonymous": false,
      "inputs": [
        {
          "indexed": true,
          "internalType": "address",
          "name": "owner",
          "type": "address"
        },
        {
          "indexed": true,
          "internalType": "address",
          "name": "operator",
          "type": "address"
        },
        {
          "indexed": false,
          "internalType": "bool",
          "name": "approved",
          "type": "bool"
        }
      ],
      "name": "ApprovalForAll",
      "type": "event"
    },
    {
      "anonymous": false,
      "inputs": [
        {
          "indexed": true,
          "internalType": "address",
          "name": "previousOwner",
          "type": "address"
        },
        {
          "indexed": true,
          "internalType": "address",
          "name": "newOwner",
          "type": "address"
        }
      ],
      "name": "OwnershipTransferred",
      "type": "event"
    },
    {
      "anonymous": false,
      "inputs": [
        {
          "indexed": true,
          "internalType": "address",
          "name": "from",
          "type": "address"
        },
        {
          "indexed": true,
          "internalType": "address",
          "name": "to",
          "type": "address"
        },
        {
          "indexed": true,
          "internalType": "uint256",
          "name": "tokenId",
          "type": "uint256"
        }
      ],
      "name": "Transfer",
      "type": "event"
    },
    {
      "inputs": [
        {
          "internalType": "address",
          "name": "to",
          "type": "address"
        },
        {
          "internalType": "uint256",
          "name": "tokenId",
          "type": "uint256"
        }
      ],
      "name": "approve",
      "outputs": [],
      "stateMutability": "nonpayable",
      "type": "function"
    },
    {
      "inputs": [
        {
          "internalType": "address",
          "name": "owner",
          "type": "address"
        }
      ],
      "name": "balanceOf",
      "outputs": [
        {
          "internalType": "uint256",
          "name": "",
          "type": "uint256"
        }
      ],
      "stateMutability": "view",
      "type": "function"
    },
    {
      "inputs": [
        {
          "internalType": "uint256",
          "name": "tokenId",
          "type": "uint256"
        }
      ],
      "name": "getApproved",
      "outputs": [
        {
          "internalType": "address",
          "name": "",
          "type": "address"
        }
      ],
      "stateMutability": "view",
      "type": "function"
    },
    {
      "inputs": [
        {
          "internalType": "address",
          "name": "owner",
          "type": "address"
        },
        {
          "internalType": "address",
          "name": "operator",
          "type": "address"
        }
      ],
      "name": "isApprovedForAll",
      "outputs": [
        {
          "internalType": "bool",
          "name": "",
          "type": "bool"
        }
      ],
      "stateMutability": "view",
      "type": "function"
    },
    {
      "inputs": [
        {
          "internalType": "uint256",
          "name": "tokenId",
          "type": "uint256"
        }
      ],
      "name": "mint",
      "outputs": [],
      "stateMutability": "nonpayable",
      "type": "function"
    },
    {
      "inputs": [],
      "name": "name",
      "outputs": [
        {
          "internalType": "string",
          "name": "",
          "type": "string"
        }
      ],
      "stateMutability": "view",
      "type": "function"
    },
    {
      "inputs": [],
      "name": "owner",
      "outputs": [
        {
          "internalType": "address",
          "name": "",
          "type": "address"
        }
      ],
      "stateMutability": "view",
      "type": "function"
    },
    {
      "inputs": [
        {
          "internalType": "uint256",
          "name": "tokenId",
          "type": "uint256"
        }
      ],
      "name": "ownerOf",
      "outputs": [
        {
          "internalType": "address",
          "name": "",
          "type": "address"
        }
      ],
      "stateMutability": "view",
      "type": "function"
    },
    {
      "inputs": [],
      "name": "renounceOwnership",
      "outputs": [],
      "stateMutability": "nonpayable",
      "type": "function"
    },
    {
      "inputs": [
        {
          "internalType": "uint256",
          "name": "tokenId",
          "type": "uint256"
        },
        {
          "internalType": "uint256",
          "name": "salePrice",
          "type": "uint256"
        }
      ],
      "name": "royaltyInfo",
      "outputs": [
        {
          "internalType": "address",
          "name": "receiver",
          "type": "address"
        },
        {
          "internalType": "uint256",
          "name": "royaltyAmount",
          "type": "uint256"
        }
      ],
      "stateMutability": "view",
      "type": "function"
    },
    {
      "inputs": [
        {
          "internalType": "address",
          "name": "from",
          "type": "address"
        },
        {
          "internalType": "address",
          "name": "to",
          "type": "address"
        },
        {
          "internalType": "uint256",
          "name": "tokenId",
          "type": "uint256"
        }
      ],
      "name": "safeTransferFrom",
      "outputs": [],
      "stateMutability": "nonpayable",
      "type": "function"
    },
    {
      "inputs": [
        {
          "internalType": "address",
          "name": "from",
          "type": "address"
        },
        {
          "internalType": "address",
          "name": "to",
          "type": "address"
        },
        {
          "internalType": "uint256",
          "name": "tokenId",
          "type": "uint256"
        },
        {
          "internalType": "bytes",
          "name": "data",
          "type": "bytes"
        }
      ],
      "name": "safeTransferFrom",
      "outputs": [],
      "stateMutability": "nonpayable",
      "type": "function"
    },
    {
      "inputs": [
        {
          "internalType": "address",
          "name": "operator",
          "type": "address"
        },
        {
          "internalType": "bool",
          "name": "approved",
          "type": "bool"
        }
      ],
      "name": "setApprovalForAll",
      "outputs": [],
      "stateMutability": "nonpayable",
      "type": "function"
    },
    {
      "inputs": [
        {
          "internalType": "bytes4",
          "name": "interfaceId",
          "type": "bytes4"
        }
      ],
      "name": "supportsInterface",
      "outputs": [
        {
          "internalType": "bool",
          "name": "",
          "type": "bool"
        }
      ],
      "stateMutability": "view",
      "type": "function"
    },
    {
      "inputs": [],
      "name": "symbol",
      "outputs": [
        {
          "internalType": "string",
          "name": "",
          "type": "string"
        }
      ],
      "stateMutability": "view",
      "type": "function"
    },
    {
      "inputs": [
        {
          "internalType": "uint256",
          "name": "index",
          "type": "uint256"
        }
      ],
      "name": "tokenByIndex",
      "outputs": [
        {
          "internalType": "uint256",
          "name": "",
          "type": "uint256"
        }
      ],
      "stateMutability": "view",
      "type": "function"
    },
    {
      "inputs": [
        {
          "internalType": "address",
          "name": "owner",
          "type": "address"
        },
        {
          "internalType": "uint256",
          "name": "index",
          "type": "uint256"
        }
      ],
      "name": "tokenOfOwnerByIndex",
      "outputs": [
        {
          "internalType": "uint256",
          "name": "",
          "type": "uint256"
        }
      ],
      "stateMutability": "view",
      "type": "function"
    },
    {
      "inputs": [
        {
          "internalType": "uint256",
          "name": "tokenId",
          "type": "uint256"
        }
      ],
      "name": "tokenURI",
      "outputs": [
        {
          "internalType": "string",
          "name": "",
          "type": "string"
        }
      ],
      "stateMutability": "view",
      "type": "function"
    },
    {
      "inputs": [],
      "name": "totalSupply",
      "outputs": [
        {
          "internalType": "uint256",
          "name": "",
          "type": "uint256"
        }
      ],
      "stateMutability": "view",
      "type": "function"
    },
    {
      "inputs": [
        {
          "internalType": "address",
          "name": "from",
          "type": "address"
        },
        {
          "internalType": "address",
          "name": "to",
          "type": "address"
        },
        {
          "internalType": "uint256",
          "name": "tokenId",
          "type": "uint256"
        }
      ],
      "name": "transferFrom",
      "outputs": [],
      "stateMutability": "nonpayable",
      "type": "function"
    },
    {
      "inputs": [
        {
          "internalType": "address",
          "name": "newOwner",
          "type": "address"
        }
      ],
      "name": "transferOwnership",
      "outputs": [],
      "stateMutability": "nonpayable",
      "type": "function"
    }
  ],
  "bytecode": "0x60806040523480156200001157600080fd5b506040518060400160405280600981526020017f46616b65204c6f6f7400000000000000000000000000000000000000000000008152506040518060400160405280600581526020017f464c4f4f54000000000000000000000000000000000000000000000000000000815250816000908051906020019062000096929190620001a6565b508060019080519060200190620000af929190620001a6565b505050620000d2620000c6620000d860201b60201c565b620000e060201b60201c565b620002bb565b600033905090565b6000600a60009054906101000a900473ffffffffffffffffffffffffffffffffffffffff16905081600a60006101000a81548173ffffffffffffffffffffffffffffffffffffffff021916908373ffffffffffffffffffffffffffffffffffffffff1602179055508173ffffffffffffffffffffffffffffffffffffffff168173ffffffffffffffffffffffffffffffffffffffff167f8be0079c531659141344cd1fd0a4f28419497f9722a3daafe3b4186f6b6457e060405160405180910390a35050565b828054620001b49062000285565b90600052602060002090601f016020900481019282620001d8576000855562000224565b82601f10620001f357805160ff191683800117855562000224565b8280016001018555821562000224579182015b828111156200022357825182559160200191906001019062000206565b5b50905062000233919062000237565b5090565b5b808211156200025257600081600090555060010162000238565b5090565b7f4e487b7100000000000000000000000000000000000000000000000000000000600052602260045260246000fd5b600060028204905060018216806200029e57607f821691505b60208210811415620002b557620002b462000256565b5b50919050565b61323280620002cb6000396000f3fe608060405234801561001057600080fd5b50600436106101375760003560e01c80636352211e116100b8578063a0712d681161007c578063a0712d6814610363578063a22cb4651461037f578063b88d4fde1461039b578063c87b56dd146103b7578063e985e9c5146103e7578063f2fde38b1461041757610137565b80636352211e146102bd57806370a08231146102ed578063715018a61461031d5780638da5cb5b1461032757806395d89b411461034557610137565b806323b872dd116100ff57806323b872dd146101f45780632a55205a146102105780632f745c591461024157806342842e0e146102715780634f6ccce71461028d57610137565b806301ffc9a71461013c57806306fdde031461016c578063081812fc1461018a578063095ea7b3146101ba57806318160ddd146101d6575b600080fd5b61015660048036038101906101519190612011565b610433565b6040516101639190612059565b60405180910390f35b6101746104ad565b604051610181919061210d565b60405180910390f35b6101a4600480360381019061019f9190612165565b61053f565b6040516101b191906121d3565b60405180910390f35b6101d460048036038101906101cf919061221a565b610585565b005b6101de61069d565b6040516101eb9190612269565b60405180910390f35b61020e60048036038101906102099190612284565b6106aa565b005b61022a600480360381019061022591906122d7565b61070a565b604051610238929190612317565b60405180910390f35b61025b6004803603810190610256919061221a565b610776565b6040516102689190612269565b60405180910390f35b61028b60048036038101906102869190612284565b61081b565b005b6102a760048036038101906102a29190612165565b61083b565b6040516102b49190612269565b60405180910390f35b6102d760048036038101906102d29190612165565b6108ac565b6040516102e491906121d3565b60405180910390f35b61030760048036038101906103029190612340565b61095e565b6040516103149190612269565b60405180910390f35b610325610a16565b005b61032f610a2a565b60405161033c91906121d3565b60405180910390f35b61034d610a54565b60405161035a919061210d565b60405180910390f35b61037d60048036038101906103789190612165565b610ae6565b005b61039960048036038101906103949190612399565b610afa565b005b6103b560048036038101906103b0919061250e565b610b10565b005b6103d160048036038101906103cc9190612165565b610b72565b6040516103de919061210d565b60405180910390f35b61040160048036038101906103fc9190612591565b610bda565b60405161040e9190612059565b60405180910390f35b610431600480360381019061042c9190612340565b610c6e565b005b60007f2a55205a000000000000000000000000000000000000000000000000000000007bffffffffffffffffffffffffffffffffffffffffffffffffffffffff1916827bffffffffffffffffffffffffffffffffffffffffffffffffffffffff191614806104a657506104a582610cf2565b5b9050919050565b6060600080546104bc90612600565b80601f01602080910402602001604051908101604052809291908181526020018280546104e890612600565b80156105355780601f1061050a57610100808354040283529160200191610535565b820191906000526020600020905b81548152906001019060200180831161051857829003601f168201915b5050505050905090565b600061054a82610d6c565b6004600083815260200190815260200160002060009054906101000a900473ffffffffffffffffffffffffffffffffffffffff169050919050565b6000610590826108ac565b90508073ffffffffffffffffffffffffffffffffffffffff168373ffffffffffffffffffffffffffffffffffffffff161415610601576040517f08c379a00000000000000000000000000000000000000000000000000000000081526004016105f8906126a4565b60405180910390fd5b8073ffffffffffffffffffffffffffffffffffffffff16610620610db7565b73ffffffffffffffffffffffffffffffffffffffff16148061064f575061064e81610649610db7565b610bda565b5b61068e576040517f08c379a000000000000000000000000000000000000000000000000000000000815260040161068590612736565b60405180910390fd5b6106988383610dbf565b505050565b6000600880549050905090565b6106bb6106b5610db7565b82610e78565b6106fa576040517f08c379a00000000000000000000000000000000000000000000000000000000081526004016106f1906127c8565b60405180910390fd5b610705838383610f0d565b505050565b60008061071684611174565b610755576040517f08c379a000000000000000000000000000000000000000000000000000000000815260040161074c90612834565b60405180910390fd5b3061076b6107648560056111e0565b60646111f6565b915091509250929050565b60006107818361095e565b82106107c2576040517f08c379a00000000000000000000000000000000000000000000000000000000081526004016107b9906128c6565b60405180910390fd5b600660008473ffffffffffffffffffffffffffffffffffffffff1673ffffffffffffffffffffffffffffffffffffffff168152602001908152602001600020600083815260200190815260200160002054905092915050565b61083683838360405180602001604052806000815250610b10565b505050565b600061084561069d565b8210610886576040517f08c379a000000000000000000000000000000000000000000000000000000000815260040161087d90612958565b60405180910390fd5b6008828154811061089a57610899612978565b5b90600052602060002001549050919050565b6000806002600084815260200190815260200160002060009054906101000a900473ffffffffffffffffffffffffffffffffffffffff169050600073ffffffffffffffffffffffffffffffffffffffff168173ffffffffffffffffffffffffffffffffffffffff161415610955576040517f08c379a000000000000000000000000000000000000000000000000000000000815260040161094c906129f3565b60405180910390fd5b80915050919050565b60008073ffffffffffffffffffffffffffffffffffffffff168273ffffffffffffffffffffffffffffffffffffffff1614156109cf576040517f08c379a00000000000000000000000000000000000000000000000000000000081526004016109c690612a85565b60405180910390fd5b600360008373ffffffffffffffffffffffffffffffffffffffff1673ffffffffffffffffffffffffffffffffffffffff168152602001908152602001600020549050919050565b610a1e61120c565b610a28600061128a565b565b6000600a60009054906101000a900473ffffffffffffffffffffffffffffffffffffffff16905090565b606060018054610a6390612600565b80601f0160208091040260200160405190810160405280929190818152602001828054610a8f90612600565b8015610adc5780601f10610ab157610100808354040283529160200191610adc565b820191906000526020600020905b815481529060010190602001808311610abf57829003601f168201915b5050505050905090565b610af7610af1610db7565b82611350565b50565b610b0c610b05610db7565b838361152a565b5050565b610b21610b1b610db7565b83610e78565b610b60576040517f08c379a0000000000000000000000000000000000000000000000000000000008152600401610b57906127c8565b60405180910390fd5b610b6c84848484611697565b50505050565b6060610b7d82610d6c565b6000610b876116f3565b90506000815111610ba75760405180602001604052806000815250610bd2565b80610bb18461170a565b604051602001610bc2929190612ae1565b6040516020818303038152906040525b915050919050565b6000600560008473ffffffffffffffffffffffffffffffffffffffff1673ffffffffffffffffffffffffffffffffffffffff16815260200190815260200160002060008373ffffffffffffffffffffffffffffffffffffffff1673ffffffffffffffffffffffffffffffffffffffff16815260200190815260200160002060009054906101000a900460ff16905092915050565b610c7661120c565b600073ffffffffffffffffffffffffffffffffffffffff168173ffffffffffffffffffffffffffffffffffffffff161415610ce6576040517f08c379a0000000000000000000000000000000000000000000000000000000008152600401610cdd90612b77565b60405180910390fd5b610cef8161128a565b50565b60007f780e9d63000000000000000000000000000000000000000000000000000000007bffffffffffffffffffffffffffffffffffffffffffffffffffffffff1916827bffffffffffffffffffffffffffffffffffffffffffffffffffffffff19161480610d655750610d648261186b565b5b9050919050565b610d7581611174565b610db4576040517f08c379a0000000000000000000000000000000000000000000000000000000008152600401610dab906129f3565b60405180910390fd5b50565b600033905090565b816004600083815260200190815260200160002060006101000a81548173ffffffffffffffffffffffffffffffffffffffff021916908373ffffffffffffffffffffffffffffffffffffffff160217905550808273ffffffffffffffffffffffffffffffffffffffff16610e32836108ac565b73ffffffffffffffffffffffffffffffffffffffff167f8c5be1e5ebec7d5bd14f71427d1e84f3dd0314c0f7b2291e5b200ac8c7c3b92560405160405180910390a45050565b600080610e84836108ac565b90508073ffffffffffffffffffffffffffffffffffffffff168473ffffffffffffffffffffffffffffffffffffffff161480610ec65750610ec58185610bda565b5b80610f0457508373ffffffffffffffffffffffffffffffffffffffff16610eec8461053f565b73ffffffffffffffffffffffffffffffffffffffff16145b91505092915050565b8273ffffffffffffffffffffffffffffffffffffffff16610f2d826108ac565b73ffffffffffffffffffffffffffffffffffffffff1614610f83576040517f08c379a0000000000000000000000000000000000000000000000000000000008152600401610f7a90612c09565b60405180910390fd5b600073ffffffffffffffffffffffffffffffffffffffff168273ffffffffffffffffffffffffffffffffffffffff161415610ff3576040517f08c379a0000000000000000000000000000000000000000000000000000000008152600401610fea90612c9b565b60405180910390fd5b610ffe83838361194d565b611009600082610dbf565b6001600360008573ffffffffffffffffffffffffffffffffffffffff1673ffffffffffffffffffffffffffffffffffffffff16815260200190815260200160002060008282546110599190612cea565b925050819055506001600360008473ffffffffffffffffffffffffffffffffffffffff1673ffffffffffffffffffffffffffffffffffffffff16815260200190815260200160002060008282546110b09190612d1e565b92505081905550816002600083815260200190815260200160002060006101000a81548173ffffffffffffffffffffffffffffffffffffffff021916908373ffffffffffffffffffffffffffffffffffffffff160217905550808273ffffffffffffffffffffffffffffffffffffffff168473ffffffffffffffffffffffffffffffffffffffff167fddf252ad1be2c89b69c2b068fc378daa952ba7f163c4a11628f55a4df523b3ef60405160405180910390a461116f83838361195d565b505050565b60008073ffffffffffffffffffffffffffffffffffffffff166002600084815260200190815260200160002060009054906101000a900473ffffffffffffffffffffffffffffffffffffffff1673ffffffffffffffffffffffffffffffffffffffff1614159050919050565b600081836111ee9190612d74565b905092915050565b600081836112049190612dfd565b905092915050565b611214610db7565b73ffffffffffffffffffffffffffffffffffffffff16611232610a2a565b73ffffffffffffffffffffffffffffffffffffffff1614611288576040517f08c379a000000000000000000000000000000000000000000000000000000000815260040161127f90612e7a565b60405180910390fd5b565b6000600a60009054906101000a900473ffffffffffffffffffffffffffffffffffffffff16905081600a60006101000a81548173ffffffffffffffffffffffffffffffffffffffff021916908373ffffffffffffffffffffffffffffffffffffffff1602179055508173ffffffffffffffffffffffffffffffffffffffff168173ffffffffffffffffffffffffffffffffffffffff167f8be0079c531659141344cd1fd0a4f28419497f9722a3daafe3b4186f6b6457e060405160405180910390a35050565b600073ffffffffffffffffffffffffffffffffffffffff168273ffffffffffffffffffffffffffffffffffffffff1614156113c0576040517f08c379a00000000000000000000000000000000000000000000000000000000081526004016113b790612ee6565b60405180910390fd5b6113c981611174565b15611409576040517f08c379a000000000000000000000000000000000000000000000000000000000815260040161140090612f52565b60405180910390fd5b6114156000838361194d565b6001600360008473ffffffffffffffffffffffffffffffffffffffff1673ffffffffffffffffffffffffffffffffffffffff16815260200190815260200160002060008282546114659190612d1e565b92505081905550816002600083815260200190815260200160002060006101000a81548173ffffffffffffffffffffffffffffffffffffffff021916908373ffffffffffffffffffffffffffffffffffffffff160217905550808273ffffffffffffffffffffffffffffffffffffffff16600073ffffffffffffffffffffffffffffffffffffffff167fddf252ad1be2c89b69c2b068fc378daa952ba7f163c4a11628f55a4df523b3ef60405160405180910390a46115266000838361195d565b5050565b8173ffffffffffffffffffffffffffffffffffffffff168373ffffffffffffffffffffffffffffffffffffffff161415611599576040517f08c379a000000000000000000000000000000000000000000000000000000000815260040161159090612fbe565b60405180910390fd5b80600560008573ffffffffffffffffffffffffffffffffffffffff1673ffffffffffffffffffffffffffffffffffffffff16815260200190815260200160002060008473ffffffffffffffffffffffffffffffffffffffff1673ffffffffffffffffffffffffffffffffffffffff16815260200190815260200160002060006101000a81548160ff0219169083151502179055508173ffffffffffffffffffffffffffffffffffffffff168373ffffffffffffffffffffffffffffffffffffffff167f17307eab39ab6107e8899845ad3d59bd9653f200f220920489ca2b5937696c318360405161168a9190612059565b60405180910390a3505050565b6116a2848484610f0d565b6116ae84848484611962565b6116ed576040517f08c379a00000000000000000000000000000000000000000000000000000000081526004016116e490613050565b60405180910390fd5b50505050565b606060405180602001604052806000815250905090565b60606000821415611752576040518060400160405280600181526020017f30000000000000000000000000000000000000000000000000000000000000008152509050611866565b600082905060005b6000821461178457808061176d90613070565b915050600a8261177d9190612dfd565b915061175a565b60008167ffffffffffffffff8111156117a05761179f6123e3565b5b6040519080825280601f01601f1916602001820160405280156117d25781602001600182028036833780820191505090505b5090505b6000851461185f576001826117eb9190612cea565b9150600a856117fa91906130b9565b60306118069190612d1e565b60f81b81838151811061181c5761181b612978565b5b60200101907effffffffffffffffffffffffffffffffffffffffffffffffffffffffffffff1916908160001a905350600a856118589190612dfd565b94506117d6565b8093505050505b919050565b60007f80ac58cd000000000000000000000000000000000000000000000000000000007bffffffffffffffffffffffffffffffffffffffffffffffffffffffff1916827bffffffffffffffffffffffffffffffffffffffffffffffffffffffff1916148061193657507f5b5e139f000000000000000000000000000000000000000000000000000000007bffffffffffffffffffffffffffffffffffffffffffffffffffffffff1916827bffffffffffffffffffffffffffffffffffffffffffffffffffffffff1916145b80611946575061194582611af9565b5b9050919050565b611958838383611b63565b505050565b505050565b60006119838473ffffffffffffffffffffffffffffffffffffffff16611c77565b15611aec578373ffffffffffffffffffffffffffffffffffffffff1663150b7a026119ac610db7565b8786866040518563ffffffff1660e01b81526004016119ce949392919061313f565b602060405180830381600087803b1580156119e857600080fd5b505af1925050508015611a1957506040513d601f19601f82011682018060405250810190611a1691906131a0565b60015b611a9c573d8060008114611a49576040519150601f19603f3d011682016040523d82523d6000602084013e611a4e565b606091505b50600081511415611a94576040517f08c379a0000000000000000000000000000000000000000000000000000000008152600401611a8b90613050565b60405180910390fd5b805181602001fd5b63150b7a0260e01b7bffffffffffffffffffffffffffffffffffffffffffffffffffffffff1916817bffffffffffffffffffffffffffffffffffffffffffffffffffffffff191614915050611af1565b600190505b949350505050565b60007f01ffc9a7000000000000000000000000000000000000000000000000000000007bffffffffffffffffffffffffffffffffffffffffffffffffffffffff1916827bffffffffffffffffffffffffffffffffffffffffffffffffffffffff1916149050919050565b611b6e838383611c9a565b600073ffffffffffffffffffffffffffffffffffffffff168373ffffffffffffffffffffffffffffffffffffffff161415611bb157611bac81611c9f565b611bf0565b8173ffffffffffffffffffffffffffffffffffffffff168373ffffffffffffffffffffffffffffffffffffffff1614611bef57611bee8382611ce8565b5b5b600073ffffffffffffffffffffffffffffffffffffffff168273ffffffffffffffffffffffffffffffffffffffff161415611c3357611c2e81611e55565b611c72565b8273ffffffffffffffffffffffffffffffffffffffff168273ffffffffffffffffffffffffffffffffffffffff1614611c7157611c708282611f26565b5b5b505050565b6000808273ffffffffffffffffffffffffffffffffffffffff163b119050919050565b505050565b6008805490506009600083815260200190815260200160002081905550600881908060018154018082558091505060019003906000526020600020016000909190919091505550565b60006001611cf58461095e565b611cff9190612cea565b9050600060076000848152602001908152602001600020549050818114611de4576000600660008673ffffffffffffffffffffffffffffffffffffffff1673ffffffffffffffffffffffffffffffffffffffff168152602001908152602001600020600084815260200190815260200160002054905080600660008773ffffffffffffffffffffffffffffffffffffffff1673ffffffffffffffffffffffffffffffffffffffff168152602001908152602001600020600084815260200190815260200160002081905550816007600083815260200190815260200160002081905550505b6007600084815260200190815260200160002060009055600660008573ffffffffffffffffffffffffffffffffffffffff1673ffffffffffffffffffffffffffffffffffffffff16815260200190815260200160002060008381526020019081526020016000206000905550505050565b60006001600880549050611e699190612cea565b9050600060096000848152602001908152602001600020549050600060088381548110611e9957611e98612978565b5b906000526020600020015490508060088381548110611ebb57611eba612978565b5b906000526020600020018190555081600960008381526020019081526020016000208190555060096000858152602001908152602001600020600090556008805480611f0a57611f096131cd565b5b6001900381819060005260206000200160009055905550505050565b6000611f318361095e565b905081600660008573ffffffffffffffffffffffffffffffffffffffff1673ffffffffffffffffffffffffffffffffffffffff168152602001908152602001600020600083815260200190815260200160002081905550806007600084815260200190815260200160002081905550505050565b6000604051905090565b600080fd5b600080fd5b60007fffffffff0000000000000000000000000000000000000000000000000000000082169050919050565b611fee81611fb9565b8114611ff957600080fd5b50565b60008135905061200b81611fe5565b92915050565b60006020828403121561202757612026611faf565b5b600061203584828501611ffc565b91505092915050565b60008115159050919050565b6120538161203e565b82525050565b600060208201905061206e600083018461204a565b92915050565b600081519050919050565b600082825260208201905092915050565b60005b838110156120ae578082015181840152602081019050612093565b838111156120bd576000848401525b50505050565b6000601f19601f8301169050919050565b60006120df82612074565b6120e9818561207f565b93506120f9818560208601612090565b612102816120c3565b840191505092915050565b6000602082019050818103600083015261212781846120d4565b905092915050565b6000819050919050565b6121428161212f565b811461214d57600080fd5b50565b60008135905061215f81612139565b92915050565b60006020828403121561217b5761217a611faf565b5b600061218984828501612150565b91505092915050565b600073ffffffffffffffffffffffffffffffffffffffff82169050919050565b60006121bd82612192565b9050919050565b6121cd816121b2565b82525050565b60006020820190506121e860008301846121c4565b92915050565b6121f7816121b2565b811461220257600080fd5b50565b600081359050612214816121ee565b92915050565b6000806040838503121561223157612230611faf565b5b600061223f85828601612205565b925050602061225085828601612150565b9150509250929050565b6122638161212f565b82525050565b600060208201905061227e600083018461225a565b92915050565b60008060006060848603121561229d5761229c611faf565b5b60006122ab86828701612205565b93505060206122bc86828701612205565b92505060406122cd86828701612150565b9150509250925092565b600080604083850312156122ee576122ed611faf565b5b60006122fc85828601612150565b925050602061230d85828601612150565b9150509250929050565b600060408201905061232c60008301856121c4565b612339602083018461225a565b9392505050565b60006020828403121561235657612355611faf565b5b600061236484828501612205565b91505092915050565b6123768161203e565b811461238157600080fd5b50565b6000813590506123938161236d565b92915050565b600080604083850312156123b0576123af611faf565b5b60006123be85828601612205565b92505060206123cf85828601612384565b9150509250929050565b600080fd5b600080fd5b7f4e487b7100000000000000000000000000000000000000000000000000000000600052604160045260246000fd5b61241b826120c3565b810181811067ffffffffffffffff8211171561243a576124396123e3565b5b80604052505050565b600061244d611fa5565b90506124598282612412565b919050565b600067ffffffffffffffff821115612479576124786123e3565b5b612482826120c3565b9050602081019050919050565b82818337600083830152505050565b60006124b16124ac8461245e565b612443565b9050828152602081018484840111156124cd576124cc6123de565b5b6124d884828561248f565b509392505050565b600082601f8301126124f5576124f46123d9565b5b813561250584826020860161249e565b91505092915050565b6000806000806080858703121561252857612527611faf565b5b600061253687828801612205565b945050602061254787828801612205565b935050604061255887828801612150565b925050606085013567ffffffffffffffff81111561257957612578611fb4565b5b612585878288016124e0565b91505092959194509250565b600080604083850312156125a8576125a7611faf565b5b60006125b685828601612205565b92505060206125c785828601612205565b9150509250929050565b7f4e487b7100000000000000000000000000000000000000000000000000000000600052602260045260246000fd5b6000600282049050600182168061261857607f821691505b6020821081141561262c5761262b6125d1565b5b50919050565b7f4552433732313a20617070726f76616c20746f2063757272656e74206f776e6560008201527f7200000000000000000000000000000000000000000000000000000000000000602082015250565b600061268e60218361207f565b915061269982612632565b604082019050919050565b600060208201905081810360008301526126bd81612681565b9050919050565b7f4552433732313a20617070726f76652063616c6c6572206973206e6f7420746f60008201527f6b656e206f776e6572206e6f7220617070726f76656420666f7220616c6c0000602082015250565b6000612720603e8361207f565b915061272b826126c4565b604082019050919050565b6000602082019050818103600083015261274f81612713565b9050919050565b7f4552433732313a2063616c6c6572206973206e6f7420746f6b656e206f776e6560008201527f72206e6f7220617070726f766564000000000000000000000000000000000000602082015250565b60006127b2602e8361207f565b91506127bd82612756565b604082019050919050565b600060208201905081810360008301526127e1816127a5565b9050919050565b7f4e6f6e6578697374656e7420746f6b656e000000000000000000000000000000600082015250565b600061281e60118361207f565b9150612829826127e8565b602082019050919050565b6000602082019050818103600083015261284d81612811565b9050919050565b7f455243373231456e756d657261626c653a206f776e657220696e646578206f7560008201527f74206f6620626f756e6473000000000000000000000000000000000000000000602082015250565b60006128b0602b8361207f565b91506128bb82612854565b604082019050919050565b600060208201905081810360008301526128df816128a3565b9050919050565b7f455243373231456e756d657261626c653a20676c6f62616c20696e646578206f60008201527f7574206f6620626f756e64730000000000000000000000000000000000000000602082015250565b6000612942602c8361207f565b915061294d826128e6565b604082019050919050565b6000602082019050818103600083015261297181612935565b9050919050565b7f4e487b7100000000000000000000000000000000000000000000000000000000600052603260045260246000fd5b7f4552433732313a20696e76616c696420746f6b656e2049440000000000000000600082015250565b60006129dd60188361207f565b91506129e8826129a7565b602082019050919050565b60006020820190508181036000830152612a0c816129d0565b9050919050565b7f4552433732313a2061646472657373207a65726f206973206e6f74206120766160008201527f6c6964206f776e65720000000000000000000000000000000000000000000000602082015250565b6000612a6f60298361207f565b9150612a7a82612a13565b604082019050919050565b60006020820190508181036000830152612a9e81612a62565b9050919050565b600081905092915050565b6000612abb82612074565b612ac58185612aa5565b9350612ad5818560208601612090565b80840191505092915050565b6000612aed8285612ab0565b9150612af98284612ab0565b91508190509392505050565b7f4f776e61626c653a206e6577206f776e657220697320746865207a65726f206160008201527f6464726573730000000000000000000000000000000000000000000000000000602082015250565b6000612b6160268361207f565b9150612b6c82612b05565b604082019050919050565b60006020820190508181036000830152612b9081612b54565b9050919050565b7f4552433732313a207472616e736665722066726f6d20696e636f72726563742060008201527f6f776e6572000000000000000000000000000000000000000000000000000000602082015250565b6000612bf360258361207f565b9150612bfe82612b97565b604082019050919050565b60006020820190508181036000830152612c2281612be6565b9050919050565b7f4552433732313a207472616e7366657220746f20746865207a65726f2061646460008201527f7265737300000000000000000000000000000000000000000000000000000000602082015250565b6000612c8560248361207f565b9150612c9082612c29565b604082019050919050565b60006020820190508181036000830152612cb481612c78565b9050919050565b7f4e487b7100000000000000000000000000000000000000000000000000000000600052601160045260246000fd5b6000612cf58261212f565b9150612d008361212f565b925082821015612d1357612d12612cbb565b5b828203905092915050565b6000612d298261212f565b9150612d348361212f565b9250827fffffffffffffffffffffffffffffffffffffffffffffffffffffffffffffffff03821115612d6957612d68612cbb565b5b828201905092915050565b6000612d7f8261212f565b9150612d8a8361212f565b9250817fffffffffffffffffffffffffffffffffffffffffffffffffffffffffffffffff0483118215151615612dc357612dc2612cbb565b5b828202905092915050565b7f4e487b7100000000000000000000000000000000000000000000000000000000600052601260045260246000fd5b6000612e088261212f565b9150612e138361212f565b925082612e2357612e22612dce565b5b828204905092915050565b7f4f776e61626c653a2063616c6c6572206973206e6f7420746865206f776e6572600082015250565b6000612e6460208361207f565b9150612e6f82612e2e565b602082019050919050565b60006020820190508181036000830152612e9381612e57565b9050919050565b7f4552433732313a206d696e7420746f20746865207a65726f2061646472657373600082015250565b6000612ed060208361207f565b9150612edb82612e9a565b602082019050919050565b60006020820190508181036000830152612eff81612ec3565b9050919050565b7f4552433732313a20746f6b656e20616c7265616479206d696e74656400000000600082015250565b6000612f3c601c8361207f565b9150612f4782612f06565b602082019050919050565b60006020820190508181036000830152612f6b81612f2f565b9050919050565b7f4552433732313a20617070726f766520746f2063616c6c657200000000000000600082015250565b6000612fa860198361207f565b9150612fb382612f72565b602082019050919050565b60006020820190508181036000830152612fd781612f9b565b9050919050565b7f4552433732313a207472616e7366657220746f206e6f6e20455243373231526560008201527f63656976657220696d706c656d656e7465720000000000000000000000000000602082015250565b600061303a60328361207f565b915061304582612fde565b604082019050919050565b600060208201905081810360008301526130698161302d565b9050919050565b600061307b8261212f565b91507fffffffffffffffffffffffffffffffffffffffffffffffffffffffffffffffff8214156130ae576130ad612cbb565b5b600182019050919050565b60006130c48261212f565b91506130cf8361212f565b9250826130df576130de612dce565b5b828206905092915050565b600081519050919050565b600082825260208201905092915050565b6000613111826130ea565b61311b81856130f5565b935061312b818560208601612090565b613134816120c3565b840191505092915050565b600060808201905061315460008301876121c4565b61316160208301866121c4565b61316e604083018561225a565b81810360608301526131808184613106565b905095945050505050565b60008151905061319a81611fe5565b92915050565b6000602082840312156131b6576131b5611faf565b5b60006131c48482850161318b565b91505092915050565b7f4e487b7100000000000000000000000000000000000000000000000000000000600052603160045260246000fdfea2646970667358221220f4e068a4518e22e8e83c549f1fc632acc0a548139c70e71ba17621f8d3beea7264736f6c63430008090033",
  "linkReferences": {},
  "deployedLinkReferences": {}
}